Archive member included because of file (symbol)

c:/program files/gnu tools arm embedded/4.7 2014q2/bin/../lib/gcc/arm-none-eabi/4.7.4/../../../../arm-none-eabi/lib/armv7e-m/fpu\libm.a(lib_a-s_sin.o)
                              ..\obj\aufgabe8.o (sin)
c:/program files/gnu tools arm embedded/4.7 2014q2/bin/../lib/gcc/arm-none-eabi/4.7.4/../../../../arm-none-eabi/lib/armv7e-m/fpu\libm.a(lib_a-e_rem_pio2.o)
                              c:/program files/gnu tools arm embedded/4.7 2014q2/bin/../lib/gcc/arm-none-eabi/4.7.4/../../../../arm-none-eabi/lib/armv7e-m/fpu\libm.a(lib_a-s_sin.o) (__ieee754_rem_pio2)
c:/program files/gnu tools arm embedded/4.7 2014q2/bin/../lib/gcc/arm-none-eabi/4.7.4/../../../../arm-none-eabi/lib/armv7e-m/fpu\libm.a(lib_a-k_cos.o)
                              c:/program files/gnu tools arm embedded/4.7 2014q2/bin/../lib/gcc/arm-none-eabi/4.7.4/../../../../arm-none-eabi/lib/armv7e-m/fpu\libm.a(lib_a-s_sin.o) (__kernel_cos)
c:/program files/gnu tools arm embedded/4.7 2014q2/bin/../lib/gcc/arm-none-eabi/4.7.4/../../../../arm-none-eabi/lib/armv7e-m/fpu\libm.a(lib_a-k_rem_pio2.o)
                              c:/program files/gnu tools arm embedded/4.7 2014q2/bin/../lib/gcc/arm-none-eabi/4.7.4/../../../../arm-none-eabi/lib/armv7e-m/fpu\libm.a(lib_a-e_rem_pio2.o) (__kernel_rem_pio2)
c:/program files/gnu tools arm embedded/4.7 2014q2/bin/../lib/gcc/arm-none-eabi/4.7.4/../../../../arm-none-eabi/lib/armv7e-m/fpu\libm.a(lib_a-k_sin.o)
                              c:/program files/gnu tools arm embedded/4.7 2014q2/bin/../lib/gcc/arm-none-eabi/4.7.4/../../../../arm-none-eabi/lib/armv7e-m/fpu\libm.a(lib_a-s_sin.o) (__kernel_sin)
c:/program files/gnu tools arm embedded/4.7 2014q2/bin/../lib/gcc/arm-none-eabi/4.7.4/../../../../arm-none-eabi/lib/armv7e-m/fpu\libm.a(lib_a-s_fabs.o)
                              c:/program files/gnu tools arm embedded/4.7 2014q2/bin/../lib/gcc/arm-none-eabi/4.7.4/../../../../arm-none-eabi/lib/armv7e-m/fpu\libm.a(lib_a-e_rem_pio2.o) (fabs)
c:/program files/gnu tools arm embedded/4.7 2014q2/bin/../lib/gcc/arm-none-eabi/4.7.4/../../../../arm-none-eabi/lib/armv7e-m/fpu\libm.a(lib_a-s_floor.o)
                              c:/program files/gnu tools arm embedded/4.7 2014q2/bin/../lib/gcc/arm-none-eabi/4.7.4/../../../../arm-none-eabi/lib/armv7e-m/fpu\libm.a(lib_a-k_rem_pio2.o) (floor)
c:/program files/gnu tools arm embedded/4.7 2014q2/bin/../lib/gcc/arm-none-eabi/4.7.4/../../../../arm-none-eabi/lib/armv7e-m/fpu\libm.a(lib_a-s_scalbn.o)
                              c:/program files/gnu tools arm embedded/4.7 2014q2/bin/../lib/gcc/arm-none-eabi/4.7.4/../../../../arm-none-eabi/lib/armv7e-m/fpu\libm.a(lib_a-k_rem_pio2.o) (scalbn)
c:/program files/gnu tools arm embedded/4.7 2014q2/bin/../lib/gcc/arm-none-eabi/4.7.4/../../../../arm-none-eabi/lib/armv7e-m/fpu\libm.a(lib_a-s_copysign.o)
                              c:/program files/gnu tools arm embedded/4.7 2014q2/bin/../lib/gcc/arm-none-eabi/4.7.4/../../../../arm-none-eabi/lib/armv7e-m/fpu\libm.a(lib_a-s_scalbn.o) (copysign)
c:/program files/gnu tools arm embedded/4.7 2014q2/bin/../lib/gcc/arm-none-eabi/4.7.4/armv7e-m/fpu\libgcc.a(_arm_addsubdf3.o)
                              ..\obj\aufgabe8.o (__aeabi_dsub)
c:/program files/gnu tools arm embedded/4.7 2014q2/bin/../lib/gcc/arm-none-eabi/4.7.4/armv7e-m/fpu\libgcc.a(_arm_muldivdf3.o)
                              ..\obj\aufgabe8.o (__aeabi_dmul)
c:/program files/gnu tools arm embedded/4.7 2014q2/bin/../lib/gcc/arm-none-eabi/4.7.4/armv7e-m/fpu\libgcc.a(_arm_cmpdf2.o)
                              c:/program files/gnu tools arm embedded/4.7 2014q2/bin/../lib/gcc/arm-none-eabi/4.7.4/../../../../arm-none-eabi/lib/armv7e-m/fpu\libm.a(lib_a-e_rem_pio2.o) (__aeabi_dcmpeq)
c:/program files/gnu tools arm embedded/4.7 2014q2/bin/../lib/gcc/arm-none-eabi/4.7.4/armv7e-m/fpu\libgcc.a(_arm_fixdfsi.o)
                              ..\obj\aufgabe8.o (__aeabi_d2iz)
c:/program files/gnu tools arm embedded/4.7 2014q2/bin/../lib/gcc/arm-none-eabi/4.7.4/armv7e-m/fpu\libgcc.a(_arm_truncdfsf2.o)
                              ..\obj\aufgabe10.o (__aeabi_d2f)
c:/program files/gnu tools arm embedded/4.7 2014q2/bin/../lib/gcc/arm-none-eabi/4.7.4/../../../../arm-none-eabi/lib/armv7e-m/fpu\libg.a(lib_a-errno.o)
                              ..\obj\socket.o (__errno)
c:/program files/gnu tools arm embedded/4.7 2014q2/bin/../lib/gcc/arm-none-eabi/4.7.4/../../../../arm-none-eabi/lib/armv7e-m/fpu\libg.a(lib_a-impure.o)
                              c:/program files/gnu tools arm embedded/4.7 2014q2/bin/../lib/gcc/arm-none-eabi/4.7.4/../../../../arm-none-eabi/lib/armv7e-m/fpu\libg.a(lib_a-errno.o) (_impure_ptr)
c:/program files/gnu tools arm embedded/4.7 2014q2/bin/../lib/gcc/arm-none-eabi/4.7.4/../../../../arm-none-eabi/lib/armv7e-m/fpu\libg.a(lib_a-malloc.o)
                              ..\obj\os.o (malloc)
c:/program files/gnu tools arm embedded/4.7 2014q2/bin/../lib/gcc/arm-none-eabi/4.7.4/../../../../arm-none-eabi/lib/armv7e-m/fpu\libg.a(lib_a-mallocr.o)
                              c:/program files/gnu tools arm embedded/4.7 2014q2/bin/../lib/gcc/arm-none-eabi/4.7.4/../../../../arm-none-eabi/lib/armv7e-m/fpu\libg.a(lib_a-malloc.o) (_malloc_r)
c:/program files/gnu tools arm embedded/4.7 2014q2/bin/../lib/gcc/arm-none-eabi/4.7.4/../../../../arm-none-eabi/lib/armv7e-m/fpu\libg.a(lib_a-memcpy.o)
                              ..\obj\socket.o (memcpy)
c:/program files/gnu tools arm embedded/4.7 2014q2/bin/../lib/gcc/arm-none-eabi/4.7.4/../../../../arm-none-eabi/lib/armv7e-m/fpu\libg.a(lib_a-memset.o)
                              ..\obj\spi.o (memset)
c:/program files/gnu tools arm embedded/4.7 2014q2/bin/../lib/gcc/arm-none-eabi/4.7.4/../../../../arm-none-eabi/lib/armv7e-m/fpu\libg.a(lib_a-mlock.o)
                              c:/program files/gnu tools arm embedded/4.7 2014q2/bin/../lib/gcc/arm-none-eabi/4.7.4/../../../../arm-none-eabi/lib/armv7e-m/fpu\libg.a(lib_a-mallocr.o) (__malloc_lock)
c:/program files/gnu tools arm embedded/4.7 2014q2/bin/../lib/gcc/arm-none-eabi/4.7.4/../../../../arm-none-eabi/lib/armv7e-m/fpu\libg.a(lib_a-sbrkr.o)
                              c:/program files/gnu tools arm embedded/4.7 2014q2/bin/../lib/gcc/arm-none-eabi/4.7.4/../../../../arm-none-eabi/lib/armv7e-m/fpu\libg.a(lib_a-mallocr.o) (_sbrk_r)
c:/program files/gnu tools arm embedded/4.7 2014q2/bin/../lib/gcc/arm-none-eabi/4.7.4/../../../../arm-none-eabi/lib/armv7e-m/fpu\libg.a(lib_a-sprintf.o)
                              ..\obj\aufgabe3.o (sprintf)
c:/program files/gnu tools arm embedded/4.7 2014q2/bin/../lib/gcc/arm-none-eabi/4.7.4/../../../../arm-none-eabi/lib/armv7e-m/fpu\libg.a(lib_a-sscanf.o)
                              ..\obj\aufgabe6.o (sscanf)
c:/program files/gnu tools arm embedded/4.7 2014q2/bin/../lib/gcc/arm-none-eabi/4.7.4/../../../../arm-none-eabi/lib/armv7e-m/fpu\libg.a(lib_a-stdio.o)
                              c:/program files/gnu tools arm embedded/4.7 2014q2/bin/../lib/gcc/arm-none-eabi/4.7.4/../../../../arm-none-eabi/lib/armv7e-m/fpu\libg.a(lib_a-sscanf.o) (__seofread)
c:/program files/gnu tools arm embedded/4.7 2014q2/bin/../lib/gcc/arm-none-eabi/4.7.4/../../../../arm-none-eabi/lib/armv7e-m/fpu\libg.a(lib_a-strcmp.o)
                              ..\obj\aufgabe12.o (strcmp)
c:/program files/gnu tools arm embedded/4.7 2014q2/bin/../lib/gcc/arm-none-eabi/4.7.4/../../../../arm-none-eabi/lib/armv7e-m/fpu\libg.a(lib_a-strcpy.o)
                              ..\obj\aufgabe12.o (strcpy)
c:/program files/gnu tools arm embedded/4.7 2014q2/bin/../lib/gcc/arm-none-eabi/4.7.4/../../../../arm-none-eabi/lib/armv7e-m/fpu\libg.a(lib_a-strlcpy.o)
                              ..\obj\CC3000.o (strlcpy)
c:/program files/gnu tools arm embedded/4.7 2014q2/bin/../lib/gcc/arm-none-eabi/4.7.4/../../../../arm-none-eabi/lib/armv7e-m/fpu\libg.a(lib_a-strlen.o)
                              ..\obj\aufgabe4.o (strlen)
c:/program files/gnu tools arm embedded/4.7 2014q2/bin/../lib/gcc/arm-none-eabi/4.7.4/../../../../arm-none-eabi/lib/armv7e-m/fpu\libg.a(lib_a-svfprintf.o)
                              c:/program files/gnu tools arm embedded/4.7 2014q2/bin/../lib/gcc/arm-none-eabi/4.7.4/../../../../arm-none-eabi/lib/armv7e-m/fpu\libg.a(lib_a-sprintf.o) (_svfprintf_r)
c:/program files/gnu tools arm embedded/4.7 2014q2/bin/../lib/gcc/arm-none-eabi/4.7.4/../../../../arm-none-eabi/lib/armv7e-m/fpu\libg.a(lib_a-svfscanf.o)
                              c:/program files/gnu tools arm embedded/4.7 2014q2/bin/../lib/gcc/arm-none-eabi/4.7.4/../../../../arm-none-eabi/lib/armv7e-m/fpu\libg.a(lib_a-sscanf.o) (__ssvfscanf_r)
c:/program files/gnu tools arm embedded/4.7 2014q2/bin/../lib/gcc/arm-none-eabi/4.7.4/../../../../arm-none-eabi/lib/armv7e-m/fpu\libg.a(lib_a-writer.o)
                              c:/program files/gnu tools arm embedded/4.7 2014q2/bin/../lib/gcc/arm-none-eabi/4.7.4/../../../../arm-none-eabi/lib/armv7e-m/fpu\libg.a(lib_a-stdio.o) (_write_r)
c:/program files/gnu tools arm embedded/4.7 2014q2/bin/../lib/gcc/arm-none-eabi/4.7.4/../../../../arm-none-eabi/lib/armv7e-m/fpu\libg.a(lib_a-closer.o)
                              c:/program files/gnu tools arm embedded/4.7 2014q2/bin/../lib/gcc/arm-none-eabi/4.7.4/../../../../arm-none-eabi/lib/armv7e-m/fpu\libg.a(lib_a-stdio.o) (_close_r)
c:/program files/gnu tools arm embedded/4.7 2014q2/bin/../lib/gcc/arm-none-eabi/4.7.4/../../../../arm-none-eabi/lib/armv7e-m/fpu\libg.a(lib_a-ctype_.o)
                              c:/program files/gnu tools arm embedded/4.7 2014q2/bin/../lib/gcc/arm-none-eabi/4.7.4/../../../../arm-none-eabi/lib/armv7e-m/fpu\libg.a(lib_a-svfscanf.o) (__ctype_ptr__)
c:/program files/gnu tools arm embedded/4.7 2014q2/bin/../lib/gcc/arm-none-eabi/4.7.4/../../../../arm-none-eabi/lib/armv7e-m/fpu\libg.a(lib_a-dtoa.o)
                              c:/program files/gnu tools arm embedded/4.7 2014q2/bin/../lib/gcc/arm-none-eabi/4.7.4/../../../../arm-none-eabi/lib/armv7e-m/fpu\libg.a(lib_a-svfprintf.o) (_dtoa_r)
c:/program files/gnu tools arm embedded/4.7 2014q2/bin/../lib/gcc/arm-none-eabi/4.7.4/../../../../arm-none-eabi/lib/armv7e-m/fpu\libg.a(lib_a-findfp.o)
                              c:/program files/gnu tools arm embedded/4.7 2014q2/bin/../lib/gcc/arm-none-eabi/4.7.4/../../../../arm-none-eabi/lib/armv7e-m/fpu\libg.a(lib_a-svfscanf.o) (__sfp_lock_acquire)
c:/program files/gnu tools arm embedded/4.7 2014q2/bin/../lib/gcc/arm-none-eabi/4.7.4/../../../../arm-none-eabi/lib/armv7e-m/fpu\libg.a(lib_a-freer.o)
                              c:/program files/gnu tools arm embedded/4.7 2014q2/bin/../lib/gcc/arm-none-eabi/4.7.4/../../../../arm-none-eabi/lib/armv7e-m/fpu\libg.a(lib_a-malloc.o) (_free_r)
c:/program files/gnu tools arm embedded/4.7 2014q2/bin/../lib/gcc/arm-none-eabi/4.7.4/../../../../arm-none-eabi/lib/armv7e-m/fpu\libg.a(lib_a-fwalk.o)
                              c:/program files/gnu tools arm embedded/4.7 2014q2/bin/../lib/gcc/arm-none-eabi/4.7.4/../../../../arm-none-eabi/lib/armv7e-m/fpu\libg.a(lib_a-findfp.o) (_fwalk)
c:/program files/gnu tools arm embedded/4.7 2014q2/bin/../lib/gcc/arm-none-eabi/4.7.4/../../../../arm-none-eabi/lib/armv7e-m/fpu\libg.a(lib_a-iswspace.o)
                              c:/program files/gnu tools arm embedded/4.7 2014q2/bin/../lib/gcc/arm-none-eabi/4.7.4/../../../../arm-none-eabi/lib/armv7e-m/fpu\libg.a(lib_a-svfscanf.o) (iswspace)
c:/program files/gnu tools arm embedded/4.7 2014q2/bin/../lib/gcc/arm-none-eabi/4.7.4/../../../../arm-none-eabi/lib/armv7e-m/fpu\libg.a(lib_a-locale.o)
                              c:/program files/gnu tools arm embedded/4.7 2014q2/bin/../lib/gcc/arm-none-eabi/4.7.4/../../../../arm-none-eabi/lib/armv7e-m/fpu\libg.a(lib_a-svfscanf.o) (__locale_mb_cur_max)
c:/program files/gnu tools arm embedded/4.7 2014q2/bin/../lib/gcc/arm-none-eabi/4.7.4/../../../../arm-none-eabi/lib/armv7e-m/fpu\libg.a(lib_a-lseekr.o)
                              c:/program files/gnu tools arm embedded/4.7 2014q2/bin/../lib/gcc/arm-none-eabi/4.7.4/../../../../arm-none-eabi/lib/armv7e-m/fpu\libg.a(lib_a-stdio.o) (_lseek_r)
c:/program files/gnu tools arm embedded/4.7 2014q2/bin/../lib/gcc/arm-none-eabi/4.7.4/../../../../arm-none-eabi/lib/armv7e-m/fpu\libg.a(lib_a-mbrtowc.o)
                              c:/program files/gnu tools arm embedded/4.7 2014q2/bin/../lib/gcc/arm-none-eabi/4.7.4/../../../../arm-none-eabi/lib/armv7e-m/fpu\libg.a(lib_a-svfscanf.o) (_mbrtowc_r)
c:/program files/gnu tools arm embedded/4.7 2014q2/bin/../lib/gcc/arm-none-eabi/4.7.4/../../../../arm-none-eabi/lib/armv7e-m/fpu\libg.a(lib_a-mbtowc_r.o)
                              c:/program files/gnu tools arm embedded/4.7 2014q2/bin/../lib/gcc/arm-none-eabi/4.7.4/../../../../arm-none-eabi/lib/armv7e-m/fpu\libg.a(lib_a-mbrtowc.o) (__mbtowc)
c:/program files/gnu tools arm embedded/4.7 2014q2/bin/../lib/gcc/arm-none-eabi/4.7.4/../../../../arm-none-eabi/lib/armv7e-m/fpu\libg.a(lib_a-memchr.o)
                              c:/program files/gnu tools arm embedded/4.7 2014q2/bin/../lib/gcc/arm-none-eabi/4.7.4/../../../../arm-none-eabi/lib/armv7e-m/fpu\libg.a(lib_a-svfprintf.o) (memchr)
c:/program files/gnu tools arm embedded/4.7 2014q2/bin/../lib/gcc/arm-none-eabi/4.7.4/../../../../arm-none-eabi/lib/armv7e-m/fpu\libg.a(lib_a-mprec.o)
                              c:/program files/gnu tools arm embedded/4.7 2014q2/bin/../lib/gcc/arm-none-eabi/4.7.4/../../../../arm-none-eabi/lib/armv7e-m/fpu\libg.a(lib_a-dtoa.o) (_Balloc)
c:/program files/gnu tools arm embedded/4.7 2014q2/bin/../lib/gcc/arm-none-eabi/4.7.4/../../../../arm-none-eabi/lib/armv7e-m/fpu\libg.a(lib_a-readr.o)
                              c:/program files/gnu tools arm embedded/4.7 2014q2/bin/../lib/gcc/arm-none-eabi/4.7.4/../../../../arm-none-eabi/lib/armv7e-m/fpu\libg.a(lib_a-stdio.o) (_read_r)
c:/program files/gnu tools arm embedded/4.7 2014q2/bin/../lib/gcc/arm-none-eabi/4.7.4/../../../../arm-none-eabi/lib/armv7e-m/fpu\libg.a(lib_a-reent.o)
                              c:/program files/gnu tools arm embedded/4.7 2014q2/bin/../lib/gcc/arm-none-eabi/4.7.4/../../../../arm-none-eabi/lib/armv7e-m/fpu\libg.a(lib_a-sbrkr.o) (errno)
c:/program files/gnu tools arm embedded/4.7 2014q2/bin/../lib/gcc/arm-none-eabi/4.7.4/../../../../arm-none-eabi/lib/armv7e-m/fpu\libg.a(lib_a-s_fpclassify.o)
                              c:/program files/gnu tools arm embedded/4.7 2014q2/bin/../lib/gcc/arm-none-eabi/4.7.4/../../../../arm-none-eabi/lib/armv7e-m/fpu\libg.a(lib_a-svfprintf.o) (__fpclassifyd)
c:/program files/gnu tools arm embedded/4.7 2014q2/bin/../lib/gcc/arm-none-eabi/4.7.4/../../../../arm-none-eabi/lib/armv7e-m/fpu\libg.a(lib_a-sccl.o)
                              c:/program files/gnu tools arm embedded/4.7 2014q2/bin/../lib/gcc/arm-none-eabi/4.7.4/../../../../arm-none-eabi/lib/armv7e-m/fpu\libg.a(lib_a-svfscanf.o) (__sccl)
c:/program files/gnu tools arm embedded/4.7 2014q2/bin/../lib/gcc/arm-none-eabi/4.7.4/../../../../arm-none-eabi/lib/armv7e-m/fpu\libg.a(lib_a-sf_nan.o)
                              c:/program files/gnu tools arm embedded/4.7 2014q2/bin/../lib/gcc/arm-none-eabi/4.7.4/../../../../arm-none-eabi/lib/armv7e-m/fpu\libg.a(lib_a-svfscanf.o) (nanf)
c:/program files/gnu tools arm embedded/4.7 2014q2/bin/../lib/gcc/arm-none-eabi/4.7.4/../../../../arm-none-eabi/lib/armv7e-m/fpu\libg.a(lib_a-strtod.o)
                              c:/program files/gnu tools arm embedded/4.7 2014q2/bin/../lib/gcc/arm-none-eabi/4.7.4/../../../../arm-none-eabi/lib/armv7e-m/fpu\libg.a(lib_a-svfscanf.o) (_strtod_r)
c:/program files/gnu tools arm embedded/4.7 2014q2/bin/../lib/gcc/arm-none-eabi/4.7.4/../../../../arm-none-eabi/lib/armv7e-m/fpu\libg.a(lib_a-strtol.o)
                              c:/program files/gnu tools arm embedded/4.7 2014q2/bin/../lib/gcc/arm-none-eabi/4.7.4/../../../../arm-none-eabi/lib/armv7e-m/fpu\libg.a(lib_a-svfscanf.o) (_strtol_r)
c:/program files/gnu tools arm embedded/4.7 2014q2/bin/../lib/gcc/arm-none-eabi/4.7.4/../../../../arm-none-eabi/lib/armv7e-m/fpu\libg.a(lib_a-strtoll_r.o)
                              c:/program files/gnu tools arm embedded/4.7 2014q2/bin/../lib/gcc/arm-none-eabi/4.7.4/../../../../arm-none-eabi/lib/armv7e-m/fpu\libg.a(lib_a-svfscanf.o) (_strtoll_r)
c:/program files/gnu tools arm embedded/4.7 2014q2/bin/../lib/gcc/arm-none-eabi/4.7.4/../../../../arm-none-eabi/lib/armv7e-m/fpu\libg.a(lib_a-strtoul.o)
                              c:/program files/gnu tools arm embedded/4.7 2014q2/bin/../lib/gcc/arm-none-eabi/4.7.4/../../../../arm-none-eabi/lib/armv7e-m/fpu\libg.a(lib_a-svfscanf.o) (_strtoul_r)
c:/program files/gnu tools arm embedded/4.7 2014q2/bin/../lib/gcc/arm-none-eabi/4.7.4/../../../../arm-none-eabi/lib/armv7e-m/fpu\libg.a(lib_a-strtoull_r.o)
                              c:/program files/gnu tools arm embedded/4.7 2014q2/bin/../lib/gcc/arm-none-eabi/4.7.4/../../../../arm-none-eabi/lib/armv7e-m/fpu\libg.a(lib_a-svfscanf.o) (_strtoull_r)
c:/program files/gnu tools arm embedded/4.7 2014q2/bin/../lib/gcc/arm-none-eabi/4.7.4/../../../../arm-none-eabi/lib/armv7e-m/fpu\libg.a(lib_a-svfiprintf.o)
                              c:/program files/gnu tools arm embedded/4.7 2014q2/bin/../lib/gcc/arm-none-eabi/4.7.4/../../../../arm-none-eabi/lib/armv7e-m/fpu\libg.a(lib_a-svfprintf.o) (__ssprint_r)
c:/program files/gnu tools arm embedded/4.7 2014q2/bin/../lib/gcc/arm-none-eabi/4.7.4/../../../../arm-none-eabi/lib/armv7e-m/fpu\libg.a(lib_a-svfiscanf.o)
                              c:/program files/gnu tools arm embedded/4.7 2014q2/bin/../lib/gcc/arm-none-eabi/4.7.4/../../../../arm-none-eabi/lib/armv7e-m/fpu\libg.a(lib_a-svfscanf.o) (_sungetc_r)
c:/program files/gnu tools arm embedded/4.7 2014q2/bin/../lib/gcc/arm-none-eabi/4.7.4/../../../../arm-none-eabi/lib/armv7e-m/fpu\libg.a(lib_a-ungetc.o)
                              c:/program files/gnu tools arm embedded/4.7 2014q2/bin/../lib/gcc/arm-none-eabi/4.7.4/../../../../arm-none-eabi/lib/armv7e-m/fpu\libg.a(lib_a-svfiscanf.o) (__submore)
c:/program files/gnu tools arm embedded/4.7 2014q2/bin/../lib/gcc/arm-none-eabi/4.7.4/../../../../arm-none-eabi/lib/armv7e-m/fpu\libg.a(lib_a-callocr.o)
                              c:/program files/gnu tools arm embedded/4.7 2014q2/bin/../lib/gcc/arm-none-eabi/4.7.4/../../../../arm-none-eabi/lib/armv7e-m/fpu\libg.a(lib_a-mprec.o) (_calloc_r)
c:/program files/gnu tools arm embedded/4.7 2014q2/bin/../lib/gcc/arm-none-eabi/4.7.4/../../../../arm-none-eabi/lib/armv7e-m/fpu\libg.a(lib_a-fclose.o)
                              c:/program files/gnu tools arm embedded/4.7 2014q2/bin/../lib/gcc/arm-none-eabi/4.7.4/../../../../arm-none-eabi/lib/armv7e-m/fpu\libg.a(lib_a-findfp.o) (fclose)
c:/program files/gnu tools arm embedded/4.7 2014q2/bin/../lib/gcc/arm-none-eabi/4.7.4/../../../../arm-none-eabi/lib/armv7e-m/fpu\libg.a(lib_a-fflush.o)
                              c:/program files/gnu tools arm embedded/4.7 2014q2/bin/../lib/gcc/arm-none-eabi/4.7.4/../../../../arm-none-eabi/lib/armv7e-m/fpu\libg.a(lib_a-ungetc.o) (_fflush_r)
c:/program files/gnu tools arm embedded/4.7 2014q2/bin/../lib/gcc/arm-none-eabi/4.7.4/../../../../arm-none-eabi/lib/armv7e-m/fpu\libg.a(lib_a-gdtoa-gethex.o)
                              c:/program files/gnu tools arm embedded/4.7 2014q2/bin/../lib/gcc/arm-none-eabi/4.7.4/../../../../arm-none-eabi/lib/armv7e-m/fpu\libg.a(lib_a-strtod.o) (__gethex)
c:/program files/gnu tools arm embedded/4.7 2014q2/bin/../lib/gcc/arm-none-eabi/4.7.4/../../../../arm-none-eabi/lib/armv7e-m/fpu\libg.a(lib_a-gdtoa-hexnan.o)
                              c:/program files/gnu tools arm embedded/4.7 2014q2/bin/../lib/gcc/arm-none-eabi/4.7.4/../../../../arm-none-eabi/lib/armv7e-m/fpu\libg.a(lib_a-strtod.o) (__hexnan)
c:/program files/gnu tools arm embedded/4.7 2014q2/bin/../lib/gcc/arm-none-eabi/4.7.4/../../../../arm-none-eabi/lib/armv7e-m/fpu\libg.a(lib_a-memmove.o)
                              c:/program files/gnu tools arm embedded/4.7 2014q2/bin/../lib/gcc/arm-none-eabi/4.7.4/../../../../arm-none-eabi/lib/armv7e-m/fpu\libg.a(lib_a-svfiprintf.o) (memmove)
c:/program files/gnu tools arm embedded/4.7 2014q2/bin/../lib/gcc/arm-none-eabi/4.7.4/../../../../arm-none-eabi/lib/armv7e-m/fpu\libg.a(lib_a-reallocr.o)
                              c:/program files/gnu tools arm embedded/4.7 2014q2/bin/../lib/gcc/arm-none-eabi/4.7.4/../../../../arm-none-eabi/lib/armv7e-m/fpu\libg.a(lib_a-svfiprintf.o) (_realloc_r)
c:/program files/gnu tools arm embedded/4.7 2014q2/bin/../lib/gcc/arm-none-eabi/4.7.4/../../../../arm-none-eabi/lib/armv7e-m/fpu\libg.a(lib_a-strncmp.o)
                              c:/program files/gnu tools arm embedded/4.7 2014q2/bin/../lib/gcc/arm-none-eabi/4.7.4/../../../../arm-none-eabi/lib/armv7e-m/fpu\libg.a(lib_a-strtod.o) (strncmp)
c:/program files/gnu tools arm embedded/4.7 2014q2/bin/../lib/gcc/arm-none-eabi/4.7.4/armv7e-m/fpu\libgcc.a(_arm_fixunsdfsi.o)
                              c:/program files/gnu tools arm embedded/4.7 2014q2/bin/../lib/gcc/arm-none-eabi/4.7.4/../../../../arm-none-eabi/lib/armv7e-m/fpu\libg.a(lib_a-strtod.o) (__aeabi_d2uiz)
c:/program files/gnu tools arm embedded/4.7 2014q2/bin/../lib/gcc/arm-none-eabi/4.7.4/armv7e-m/fpu\libgcc.a(_aeabi_uldivmod.o)
                              c:/program files/gnu tools arm embedded/4.7 2014q2/bin/../lib/gcc/arm-none-eabi/4.7.4/../../../../arm-none-eabi/lib/armv7e-m/fpu\libg.a(lib_a-svfprintf.o) (__aeabi_uldivmod)
c:/program files/gnu tools arm embedded/4.7 2014q2/bin/../lib/gcc/arm-none-eabi/4.7.4/armv7e-m/fpu\libgcc.a(bpabi.o)
                              c:/program files/gnu tools arm embedded/4.7 2014q2/bin/../lib/gcc/arm-none-eabi/4.7.4/armv7e-m/fpu\libgcc.a(_aeabi_uldivmod.o) (__gnu_uldivmod_helper)
c:/program files/gnu tools arm embedded/4.7 2014q2/bin/../lib/gcc/arm-none-eabi/4.7.4/armv7e-m/fpu\libgcc.a(_dvmd_tls.o)
                              c:/program files/gnu tools arm embedded/4.7 2014q2/bin/../lib/gcc/arm-none-eabi/4.7.4/armv7e-m/fpu\libgcc.a(_aeabi_uldivmod.o) (__aeabi_ldiv0)
c:/program files/gnu tools arm embedded/4.7 2014q2/bin/../lib/gcc/arm-none-eabi/4.7.4/armv7e-m/fpu\libgcc.a(_divdi3.o)
                              c:/program files/gnu tools arm embedded/4.7 2014q2/bin/../lib/gcc/arm-none-eabi/4.7.4/armv7e-m/fpu\libgcc.a(bpabi.o) (__divdi3)
c:/program files/gnu tools arm embedded/4.7 2014q2/bin/../lib/gcc/arm-none-eabi/4.7.4/armv7e-m/fpu\libgcc.a(_udivdi3.o)
                              c:/program files/gnu tools arm embedded/4.7 2014q2/bin/../lib/gcc/arm-none-eabi/4.7.4/armv7e-m/fpu\libgcc.a(bpabi.o) (__udivdi3)

Allocating common symbols
Common symbol       size              file

average_value_index
                    0x4               ..\obj\socket.o
bufi                0x28              ..\obj\interrupts.o
state_red_other     0x4               ..\obj\socket.o
ucStatus_FW         0x1               ..\obj\patch.o
exceptsds           0x4               ..\obj\CC3000.o
TxCC1100            0x3e              ..\obj\CC1101.o
string_out          0x32              ..\obj\interrupts.o
S_ConnectedClient   0x10              ..\obj\CC3000.o
rx_daten            0x800             ..\obj\CC3000.o
tx_daten            0x800             ..\obj\CC3000.o
sinus_dau           0xc8              ..\obj\socket.o
my_IP               0x10              ..\obj\CC3000.o
errno               0x4               c:/program files/gnu tools arm embedded/4.7 2014q2/bin/../lib/gcc/arm-none-eabi/4.7.4/../../../../arm-none-eabi/lib/armv7e-m/fpu\libg.a(lib_a-reent.o)
socket_Handles      0x10              ..\obj\CC3000.o
echo_socket_handle  0x4               ..\obj\socket.o
RxCC1100            0x42              ..\obj\CC1101.o
udp_socket          0x4               ..\obj\CC3000.o
color_toggle        0x4               ..\obj\socket.o
NTP_Servers         0x12c             ..\obj\ntp.o
from                0x40              ..\obj\CC3000.o
aufgabe_11_aktiv    0x4               ..\obj\socket.o
profileArray        0x43              ..\obj\wlan.o
tSLInformation      0x44              ..\obj\wlan.o
timer_counter       0x4               ..\obj\socket.o
ntp_pkt             0x30              ..\obj\ntp.o
state_green_local   0x4               ..\obj\socket.o
RTC_Init_Struct     0xc               ..\obj\rtc.o
ntp_sync_stop_Date  0x4               ..\obj\rtc.o
readds              0x4               ..\obj\CC3000.o
cRMParamsFromEeprom
                    0x80              ..\obj\patch.o
ntp_sync_stop_Time  0x4               ..\obj\rtc.o
__hexdig            0x100             c:/program files/gnu tools arm embedded/4.7 2014q2/bin/../lib/gcc/arm-none-eabi/4.7.4/../../../../arm-none-eabi/lib/armv7e-m/fpu\libg.a(lib_a-gdtoa-gethex.o)
apProfiles          0x230             ..\obj\CC3000.o
tcp_socket          0x4               ..\obj\CC3000.o
NTP_Server_Name     0x20              ..\obj\ntp.o
dma_print_buffer    0x400             ..\obj\interrupts.o
strScanresults      0x32              ..\obj\CC3000.o
ntp_sync_startTime  0x4               ..\obj\rtc.o
aufgabe_7_aktiv     0x4               ..\obj\socket.o
target_id           0x4               ..\obj\socket.o
setting_time        0x4               ..\obj\socket.o
is_allocated        0xc               ..\obj\patch.o
source_id           0x4               ..\obj\socket.o
RTC_Alarm_Struct    0x10              ..\obj\rtc.o
usart2_tx_buffer    0x32              ..\obj\socket.o
RTC_Time_Aktuell    0x4               ..\obj\rtc.o
sockets             0x40              ..\obj\CC3000.o
usart2_rx_buffer    0x32              ..\obj\socket.o
write_protected     0xc               ..\obj\patch.o
send_buffer         0x4               ..\obj\socket.o
ucStatus_Dr         0x1               ..\obj\patch.o
cMacFromEeprom      0x6               ..\obj\patch.o
tSocketAddr         0x10              ..\obj\CC3000.o
aufgabe_6_aktiv     0x4               ..\obj\socket.o
last_NTP_Sync       0x4               ..\obj\ntp.o
aufgabe_5_aktiv     0x4               ..\obj\socket.o
profile             0x68              ..\obj\CC3000.o
sSpiInformation     0x14              ..\obj\spi.o
rx_buf              0x2000            ..\obj\CC3000.o
RTC_Time_Struct     0x4               ..\obj\rtc.o
state_red_local     0x4               ..\obj\socket.o
RTC_Date_Struct     0x4               ..\obj\rtc.o
timeout             0x8               ..\obj\CC3000.o
TCA6416_DATA        0x4               ..\obj\TCA6416.o
key                 0x10              ..\obj\wlan.o
write_cbs           0x10              ..\obj\CC3000.o
sinus_x_pos         0x4               ..\obj\socket.o
file_length         0x18              ..\obj\patch.o
average_values      0x190             ..\obj\socket.o
tx_buf              0x2000            ..\obj\CC3000.o
RTC_InitStructure   0xc               ..\obj\rtc.o
average_window_width
                    0x4               ..\obj\socket.o
next_send_command   0x4               ..\obj\socket.o
file_address        0x18              ..\obj\patch.o
read_cbs            0x10              ..\obj\CC3000.o
socket_Type         0x8               ..\obj\CC3000.o
NVIC_InitStruct     0x4               ..\obj\rtc.o
RTC_Alarm_Aktuell   0x10              ..\obj\rtc.o
Buffer              0x32              ..\obj\socket.o
string_in           0x32              ..\obj\interrupts.o
except_cbs          0x10              ..\obj\CC3000.o
expandedKey         0xb0              ..\obj\security.o
aufgabe_12_aktiv    0x4               ..\obj\socket.o
ntp_sync_startDate  0x4               ..\obj\rtc.o
set_ntp_time        0x4               ..\obj\socket.o
EXTI_InitStruct     0x8               ..\obj\rtc.o
aufgabe_2_aktiv     0x4               ..\obj\socket.o
aufgabe_8_aktiv     0x4               ..\obj\socket.o
visibleNetworks     0x528             ..\obj\CC3000.o
tasten              0x32              ..\obj\interrupts.o
aufgabe_10_aktiv    0x4               ..\obj\socket.o
state_green_other   0x4               ..\obj\socket.o
RTC_TimeStructure   0x4               ..\obj\rtc.o
senderIP            0x8               ..\obj\socket.o
wlan_tx_buffer      0x5f0             ..\obj\spi.o
is_valid            0xc               ..\obj\patch.o
buffer_out          0x400             ..\obj\CC3000.o
writeds             0x4               ..\obj\CC3000.o
cc3000_out          0x4c8             ..\obj\CC3000.o
wlan_rx_buffer      0x5f0             ..\obj\spi.o
RTC_Date_Aktuell    0x4               ..\obj\rtc.o
sinus_voltage       0x190             ..\obj\socket.o

Discarded input sections

 .text          0x00000000        0x0 ..\obj\socket.o
 .data          0x00000000        0x0 ..\obj\socket.o
 .bss           0x00000000        0x0 ..\obj\socket.o
 .text.socket   0x00000000       0x88 ..\obj\socket.o
 .text.closesocket
                0x00000000       0x6c ..\obj\socket.o
 .text.accept   0x00000000       0xac ..\obj\socket.o
 .text.bind     0x00000000       0xac ..\obj\socket.o
 .text.listen   0x00000000       0x70 ..\obj\socket.o
 .text.gethostbyname
                0x00000000       0xc8 ..\obj\socket.o
 .text.connect  0x00000000       0xac ..\obj\socket.o
 .text.setsockopt
                0x00000000       0xd0 ..\obj\socket.o
 .text.getsockopt
                0x00000000       0x9c ..\obj\socket.o
 .text.mdnsAdvertiser
                0x00000000       0xb0 ..\obj\socket.o
Memory Configuration

Name             Origin             Length             Attributes
rom              0x08000000         0x00100000         xr
ram              0x20000000         0x00020000         xrw
ram1             0x10000000         0x00010000         xrw
*default*        0x00000000         0xffffffff

Linker script and memory map

                0x20020000                _eram = 0x20020000

.text           0x08000000    0x11a5c
 *(.isr_vector)
 .isr_vector    0x08000000      0x188 ..\obj\startup_stm32f4xx.o
                0x08000000                g_pfnVectors
 *(.text*)
 .text.HostFlowControlConsumeBuff
                0x08000188       0x8c ..\obj\socket.o
                0x08000188                HostFlowControlConsumeBuff
 .text.select   0x08000214      0x194 ..\obj\socket.o
                0x08000214                select
 .text.simple_link_recv
                0x080003a8       0x8c ..\obj\socket.o
                0x080003a8                simple_link_recv
 .text.recv     0x08000434       0x38 ..\obj\socket.o
                0x08000434                recv
 .text.recvfrom
                0x0800046c       0x34 ..\obj\socket.o
                0x0800046c                recvfrom
 .text.simple_link_send
                0x080004a0      0x198 ..\obj\socket.o
                0x080004a0                simple_link_send
 .text.send     0x08000638       0x38 ..\obj\socket.o
                0x08000638                send
 .text.sendto   0x08000670       0x34 ..\obj\socket.o
                0x08000670                sendto
 .text.SYSCFG_EXTILineConfig
                0x080006a4       0xb0 ..\obj\stm32f4xx_syscfg.o
                0x080006a4                SYSCFG_EXTILineConfig
 .text.init_usart_2
                0x08000754       0xc4 ..\obj\aufgabe4.o
                0x08000754                init_usart_2
 .text.usart_2_print
                0x08000818       0x64 ..\obj\aufgabe4.o
                0x08000818                usart_2_print
 .text.usart_2_read
                0x0800087c       0x30 ..\obj\aufgabe4.o
                0x0800087c                usart_2_read
 .text.NVIC_EnableIRQ
                0x080008ac       0x38 ..\obj\spi.o
 .text.NVIC_DisableIRQ
                0x080008e4       0x3c ..\obj\spi.o
 .text.wait_uSek
                0x08000920       0x40 ..\obj\spi.o
                0x08000920                wait_uSek
 .text.WLAN_IRQ_Handler
                0x08000960      0x114 ..\obj\spi.o
                0x08000960                WLAN_IRQ_Handler
 .text.DMA1_Stream4_IRQHandler
                0x08000a74       0x4c ..\obj\spi.o
                0x08000a74                DMA1_Stream4_IRQHandler
 .text.DMA_Int_Handler
                0x08000ac0      0x200 ..\obj\spi.o
                0x08000ac0                DMA_Int_Handler
 .text.ReadWlanInterruptPin
                0x08000cc0       0x1c ..\obj\spi.o
                0x08000cc0                ReadWlanInterruptPin
 .text.SpiReadData
                0x08000cdc       0x24 ..\obj\spi.o
                0x08000cdc                SpiReadData
 .text.SpiReadWriteStringInt
                0x08000d00      0x198 ..\obj\spi.o
                0x08000d00                SpiReadWriteStringInt
 .text.SpiReadWriteString
                0x08000e98      0x184 ..\obj\spi.o
                0x08000e98                SpiReadWriteString
 .text.SpiWrite
                0x0800101c      0x198 ..\obj\spi.o
                0x0800101c                SpiWrite
 .text.SpiResumeSpi
                0x080011b4        0xc ..\obj\spi.o
                0x080011b4                SpiResumeSpi
 .text.WlanInterruptEnable
                0x080011c0       0x74 ..\obj\spi.o
                0x080011c0                WlanInterruptEnable
 .text.DMA_und_SPI_ClearInterruptFlag
                0x08001234       0x3c ..\obj\spi.o
                0x08001234                DMA_und_SPI_ClearInterruptFlag
 .text.SpiReadDataCont
                0x08001270      0x11c ..\obj\spi.o
                0x08001270                SpiReadDataCont
 .text.hci_command_send
                0x0800138c       0x64 ..\obj\hci.o
                0x0800138c                hci_command_send
 .text.hci_data_send
                0x080013f0       0x88 ..\obj\hci.o
                0x080013f0                hci_data_send
 .text.hci_patch_send
                0x08001478      0x15c ..\obj\hci.o
                0x08001478                hci_patch_send
 .text.set_exti_line
                0x080015d4       0x34 ..\obj\aufgabe5.o
                0x080015d4                set_exti_line
 .text.enable_taste1_irq
                0x08001608       0x24 ..\obj\aufgabe5.o
                0x08001608                enable_taste1_irq
 .text.disable_taste1_irq
                0x0800162c       0x18 ..\obj\aufgabe5.o
                0x0800162c                disable_taste1_irq
 .text.print_tasten_status
                0x08001644       0x4c ..\obj\interrupts.o
                0x08001644                print_tasten_status
 .text.TASTER1_IRQ
                0x08001690       0xcc ..\obj\interrupts.o
                0x08001690                TASTER1_IRQ
 .text.TASTER2_IRQ
                0x0800175c      0x124 ..\obj\interrupts.o
                0x0800175c                TASTER2_IRQ
 .text.NMI_Handler
                0x08001880        0xc ..\obj\interrupts.o
                0x08001880                NMI_Handler
 .text.HardFault_Handler
                0x0800188c       0x1c ..\obj\interrupts.o
                0x0800188c                HardFault_Handler
 .text.MemManage_Handler
                0x080018a8        0x8 ..\obj\interrupts.o
                0x080018a8                MemManage_Handler
 .text.BusFault_Handler
                0x080018b0        0x8 ..\obj\interrupts.o
                0x080018b0                BusFault_Handler
 .text.UsageFault_Handler
                0x080018b8        0x8 ..\obj\interrupts.o
                0x080018b8                UsageFault_Handler
 .text.SVC_Handler
                0x080018c0        0xc ..\obj\interrupts.o
                0x080018c0                SVC_Handler
 .text.DebugMon_Handler
                0x080018cc        0xc ..\obj\interrupts.o
                0x080018cc                DebugMon_Handler
 .text.SysTick_Handler
                0x080018d8      0x160 ..\obj\interrupts.o
                0x080018d8                SysTick_Handler
 .text.WWDG_IRQHandler
                0x08001a38       0x18 ..\obj\interrupts.o
                0x08001a38                WWDG_IRQHandler
 .text.EXTI0_IRQHandler
                0x08001a50       0x28 ..\obj\interrupts.o
                0x08001a50                EXTI0_IRQHandler
 .text.EXTI1_IRQHandler
                0x08001a78        0xc ..\obj\interrupts.o
                0x08001a78                EXTI1_IRQHandler
 .text.EXTI2_IRQHandler
                0x08001a84        0xc ..\obj\interrupts.o
                0x08001a84                EXTI2_IRQHandler
 .text.EXTI3_IRQHandler
                0x08001a90        0xc ..\obj\interrupts.o
                0x08001a90                EXTI3_IRQHandler
 .text.EXTI4_IRQHandler
                0x08001a9c        0xc ..\obj\interrupts.o
                0x08001a9c                EXTI4_IRQHandler
 .text.EXTI9_5_IRQHandler
                0x08001aa8       0x4c ..\obj\interrupts.o
                0x08001aa8                EXTI9_5_IRQHandler
 .text.EXTI15_10_IRQHandler
                0x08001af4       0x3c ..\obj\interrupts.o
                0x08001af4                EXTI15_10_IRQHandler
 .text.RTC_Alarm_IRQHandler
                0x08001b30       0xa4 ..\obj\interrupts.o
                0x08001b30                RTC_Alarm_IRQHandler
 .text.ADC_IRQHandler
                0x08001bd4       0x28 ..\obj\interrupts.o
                0x08001bd4                ADC_IRQHandler
 .text.read_usart_string
                0x08001bfc       0xe8 ..\obj\interrupts.o
                0x08001bfc                read_usart_string
 .text.USART2_IRQHandler
                0x08001ce4      0x210 ..\obj\interrupts.o
                0x08001ce4                USART2_IRQHandler
 .text.USART6_IRQHandler
                0x08001ef4        0xc ..\obj\interrupts.o
                0x08001ef4                USART6_IRQHandler
 .text.DMA1_Stream6_IRQHandler
                0x08001f00       0x34 ..\obj\interrupts.o
                0x08001f00                DMA1_Stream6_IRQHandler
 .text.RTC_WKUP_IRQHandler
                0x08001f34       0x34 ..\obj\interrupts.o
                0x08001f34                RTC_WKUP_IRQHandler
 .text.TIM5_IRQHandler
                0x08001f68       0x48 ..\obj\interrupts.o
                0x08001f68                TIM5_IRQHandler
 .text.TIM7_IRQHandler
                0x08001fb0      0x284 ..\obj\interrupts.o
                0x08001fb0                TIM7_IRQHandler
 .text.TIM6_DAC_IRQHandler
                0x08002234        0xc ..\obj\interrupts.o
                0x08002234                TIM6_DAC_IRQHandler
 .text.hard_fault_handler_c
                0x08002240        0xc ..\obj\interrupts.o
                0x08002240                hard_fault_handler_c
 .text.init_alarm_interrupt
                0x0800224c       0x7c ..\obj\aufgabe6.o
                0x0800224c                init_alarm_interrupt
 .text.time_alarm
                0x080022c8       0x9c ..\obj\aufgabe6.o
                0x080022c8                time_alarm
 .text.print_alarm_info
                0x08002364       0xa4 ..\obj\aufgabe6.o
                0x08002364                print_alarm_info
 .text.calc_week_day
                0x08002408      0x180 ..\obj\aufgabe6.o
                0x08002408                calc_week_day
 .text.update_date_time
                0x08002588       0xb0 ..\obj\aufgabe6.o
                0x08002588                update_date_time
 .text.USART_Init
                0x08002638      0x1ac ..\obj\stm32f4xx_usart.o
                0x08002638                USART_Init
 .text.USART_Cmd
                0x080027e4       0x40 ..\obj\stm32f4xx_usart.o
                0x080027e4                USART_Cmd
 .text.USART_SendData
                0x08002824       0x28 ..\obj\stm32f4xx_usart.o
                0x08002824                USART_SendData
 .text.USART_ReceiveData
                0x0800284c       0x24 ..\obj\stm32f4xx_usart.o
                0x0800284c                USART_ReceiveData
 .text.USART_DMACmd
                0x08002870       0x48 ..\obj\stm32f4xx_usart.o
                0x08002870                USART_DMACmd
 .text.USART_GetFlagStatus
                0x080028b8       0x40 ..\obj\stm32f4xx_usart.o
                0x080028b8                USART_GetFlagStatus
 .text.USART_GetITStatus
                0x080028f8       0xc4 ..\obj\stm32f4xx_usart.o
                0x080028f8                USART_GetITStatus
 .text.USART_ClearITPendingBit
                0x080029bc       0x44 ..\obj\stm32f4xx_usart.o
                0x080029bc                USART_ClearITPendingBit
 .text.PWR_BackupAccessCmd
                0x08002a00       0x20 ..\obj\stm32f4xx_pwr.o
                0x08002a00                PWR_BackupAccessCmd
 .text.PWR_WakeUpPinCmd
                0x08002a20       0x20 ..\obj\stm32f4xx_pwr.o
                0x08002a20                PWR_WakeUpPinCmd
 .text.PWR_EnterSTANDBYMode
                0x08002a40       0x54 ..\obj\stm32f4xx_pwr.o
                0x08002a40                PWR_EnterSTANDBYMode
 .text.PWR_ClearFlag
                0x08002a94       0x30 ..\obj\stm32f4xx_pwr.o
                0x08002a94                PWR_ClearFlag
 .text.start_RTC
                0x08002ac4       0x7c ..\obj\rtc.o
                0x08002ac4                start_RTC
 .text.init_RTC
                0x08002b40      0x19c ..\obj\rtc.o
                0x08002b40                init_RTC
 .text.UINT32_TO_STREAM_f
                0x08002cdc       0x64 ..\obj\cc3000_common.o
                0x08002cdc                UINT32_TO_STREAM_f
 .text.UINT16_TO_STREAM_f
                0x08002d40       0x40 ..\obj\cc3000_common.o
                0x08002d40                UINT16_TO_STREAM_f
 .text.STREAM_TO_UINT16_f
                0x08002d80       0x38 ..\obj\cc3000_common.o
                0x08002d80                STREAM_TO_UINT16_f
 .text.STREAM_TO_UINT32_f
                0x08002db8       0x58 ..\obj\cc3000_common.o
                0x08002db8                STREAM_TO_UINT32_f
 .text.init_pwm
                0x08002e10       0x80 ..\obj\aufgabe8.o
                0x08002e10                init_pwm
 .text.init_pwm_signal_timer
                0x08002e90       0xdc ..\obj\aufgabe8.o
                0x08002e90                init_pwm_signal_timer
 .text.disable_pwm_timer
                0x08002f6c       0x18 ..\obj\aufgabe8.o
                0x08002f6c                disable_pwm_timer
 *fill*         0x08002f84        0x4 00
 .text.play_music
                0x08002f88      0x160 ..\obj\aufgabe8.o
                0x08002f88                play_music
 .text.aufgabe8_2_1
                0x080030e8      0x15c ..\obj\aufgabe8.o
                0x080030e8                aufgabe8_2_1
 .text.WWDG_ClearFlag
                0x08003244       0x18 ..\obj\stm32f4xx_wwdg.o
                0x08003244                WWDG_ClearFlag
 .text.DAC_SetChannel1Data
                0x0800325c       0x38 ..\obj\stm32f4xx_dac.o
                0x0800325c                DAC_SetChannel1Data
 .text.get_measure_value
                0x08003294       0xe8 ..\obj\aufgabe9.o
                0x08003294                get_measure_value
 .text.Default_Reset_Handler
                0x0800337c       0x7c ..\obj\startup_stm32f4xx.o
                0x0800337c                Default_Reset_Handler
                0x0800337c                Reset_Handler
 .text.Default_Handler
                0x080033f8        0x8 ..\obj\startup_stm32f4xx.o
                0x080033f8                HASH_RNG_IRQHandler
                0x080033f8                TIM8_CC_IRQHandler
                0x080033f8                TIM1_CC_IRQHandler
                0x080033f8                DMA2_Stream5_IRQHandler
                0x080033f8                DMA1_Stream5_IRQHandler
                0x080033f8                PVD_IRQHandler
                0x080033f8                SDIO_IRQHandler
                0x080033f8                TAMP_STAMP_IRQHandler
                0x080033f8                CAN2_RX1_IRQHandler
                0x080033f8                TIM8_TRG_COM_TIM14_IRQHandler
                0x080033f8                TIM1_UP_TIM10_IRQHandler
                0x080033f8                TIM8_UP_TIM13_IRQHandler
                0x080033f8                I2C3_ER_IRQHandler
                0x080033f8                I2C2_EV_IRQHandler
                0x080033f8                DMA1_Stream2_IRQHandler
                0x080033f8                CAN1_RX0_IRQHandler
                0x080033f8                FPU_IRQHandler
                0x080033f8                OTG_HS_WKUP_IRQHandler
                0x080033f8                CAN2_SCE_IRQHandler
                0x080033f8                DMA2_Stream2_IRQHandler
                0x080033f8                SPI1_IRQHandler
                0x080033f8                TIM1_BRK_TIM9_IRQHandler
                0x080033f8                DCMI_IRQHandler
                0x080033f8                CAN2_RX0_IRQHandler
                0x080033f8                DMA2_Stream3_IRQHandler
                0x080033f8                USART3_IRQHandler
                0x080033f8                CRYP_IRQHandler
                0x080033f8                CAN1_RX1_IRQHandler
                0x080033f8                UART5_IRQHandler
                0x080033f8                DMA2_Stream0_IRQHandler
                0x080033f8                TIM4_IRQHandler
                0x080033f8                I2C1_EV_IRQHandler
                0x080033f8                DMA1_Stream1_IRQHandler
                0x080033f8                UART4_IRQHandler
                0x080033f8                TIM3_IRQHandler
                0x080033f8                RCC_IRQHandler
                0x080033f8                TIM8_BRK_TIM12_IRQHandler
                0x080033f8                DMA1_Stream7_IRQHandler
                0x080033f8                CAN2_TX_IRQHandler
                0x080033f8                DMA2_Stream7_IRQHandler
                0x080033f8                I2C3_EV_IRQHandler
                0x080033f8                ETH_WKUP_IRQHandler
                0x080033f8                SPI2_IRQHandler
                0x080033f8                OTG_HS_EP1_IN_IRQHandler
                0x080033f8                DMA1_Stream0_IRQHandler
                0x080033f8                CAN1_TX_IRQHandler
                0x080033f8                FSMC_IRQHandler
                0x080033f8                ETH_IRQHandler
                0x080033f8                OTG_HS_EP1_OUT_IRQHandler
                0x080033f8                TIM2_IRQHandler
                0x080033f8                OTG_FS_WKUP_IRQHandler
                0x080033f8                TIM1_TRG_COM_TIM11_IRQHandler
                0x080033f8                OTG_HS_IRQHandler
                0x080033f8                I2C2_ER_IRQHandler
                0x080033f8                DMA2_Stream1_IRQHandler
                0x080033f8                CAN1_SCE_IRQHandler
                0x080033f8                FLASH_IRQHandler
                0x080033f8                DMA2_Stream4_IRQHandler
                0x080033f8                USART1_IRQHandler
                0x080033f8                OTG_FS_IRQHandler
                0x080033f8                SPI3_IRQHandler
                0x080033f8                I2C1_ER_IRQHandler
                0x080033f8                DMA2_Stream6_IRQHandler
                0x080033f8                DMA1_Stream3_IRQHandler
 .text.main     0x08003400       0x20 ..\obj\main.o
                0x08003400                main
 .text.RCC_LSEConfig
                0x08003420       0x60 ..\obj\stm32f4xx_rcc.o
                0x08003420                RCC_LSEConfig
 .text.RCC_GetClocksFreq
                0x08003480      0x1cc ..\obj\stm32f4xx_rcc.o
                0x08003480                RCC_GetClocksFreq
 .text.RCC_RTCCLKConfig
                0x0800364c       0x74 ..\obj\stm32f4xx_rcc.o
                0x0800364c                RCC_RTCCLKConfig
 .text.RCC_RTCCLKCmd
                0x080036c0       0x20 ..\obj\stm32f4xx_rcc.o
                0x080036c0                RCC_RTCCLKCmd
 .text.RCC_AHB1PeriphClockCmd
                0x080036e0       0x54 ..\obj\stm32f4xx_rcc.o
                0x080036e0                RCC_AHB1PeriphClockCmd
 .text.RCC_APB1PeriphClockCmd
                0x08003734       0x54 ..\obj\stm32f4xx_rcc.o
                0x08003734                RCC_APB1PeriphClockCmd
 .text.RCC_APB2PeriphClockCmd
                0x08003788       0x54 ..\obj\stm32f4xx_rcc.o
                0x08003788                RCC_APB2PeriphClockCmd
 .text.RCC_GetFlagStatus
                0x080037dc       0x90 ..\obj\stm32f4xx_rcc.o
                0x080037dc                RCC_GetFlagStatus
 .text.get_dau_value
                0x0800386c       0x4c ..\obj\aufgabe10.o
                0x0800386c                get_dau_value
 .text.set_output_voltage
                0x080038b8       0x4c ..\obj\aufgabe10.o
                0x080038b8                set_output_voltage
 .text.NVIC_SetPriority
                0x08003904       0x5c ..\obj\init.o
 .text.SysTick_Config
                0x08003960       0x64 ..\obj\init.o
 .text.InitSysTick
                0x080039c4       0x30 ..\obj\init.o
                0x080039c4                InitSysTick
 .text.init_board
                0x080039f4        0xc ..\obj\init.o
                0x080039f4                init_board
 .text.print_usart2_dma
                0x08003a00       0xc8 ..\obj\aufgabe11.o
                0x08003a00                print_usart2_dma
 .text.ADC_SoftwareStartConv
                0x08003ac8       0x20 ..\obj\stm32f4xx_adc.o
                0x08003ac8                ADC_SoftwareStartConv
 .text.ADC_GetConversionValue
                0x08003ae8       0x1c ..\obj\stm32f4xx_adc.o
                0x08003ae8                ADC_GetConversionValue
 .text.ADC_GetFlagStatus
                0x08003b04       0x3c ..\obj\stm32f4xx_adc.o
                0x08003b04                ADC_GetFlagStatus
 .text.ADC_GetITStatus
                0x08003b40       0x6c ..\obj\stm32f4xx_adc.o
                0x08003b40                ADC_GetITStatus
 .text.print_packet_string
                0x08003bac       0xac ..\obj\aufgabe12.o
                0x08003bac                print_packet_string
 .text.receive_data_callback
                0x08003c58      0x12c ..\obj\aufgabe12.o
                0x08003c58                receive_data_callback
 .text.taster_callback
                0x08003d84       0x4c ..\obj\aufgabe12.o
                0x08003d84                taster_callback
 .text.spiInitTrx
                0x08003dd0       0xa8 ..\obj\CC1101.o
                0x08003dd0                spiInitTrx
 .text.trx_spi  0x08003e78       0x78 ..\obj\CC1101.o
                0x08003e78                trx_spi
 .text.spiReadReg
                0x08003ef0       0x44 ..\obj\CC1101.o
                0x08003ef0                spiReadReg
 .text.spiStrobe
                0x08003f34       0x30 ..\obj\CC1101.o
                0x08003f34                spiStrobe
 .text.spiWriteBurstReg
                0x08003f64       0x60 ..\obj\CC1101.o
                0x08003f64                spiWriteBurstReg
 .text.spiReadBurstReg
                0x08003fc4       0x64 ..\obj\CC1101.o
                0x08003fc4                spiReadBurstReg
 .text.spiReadStatus
                0x08004028       0x44 ..\obj\CC1101.o
                0x08004028                spiReadStatus
 .text.ISR_IRQ5_CC1101
                0x0800406c      0x11c ..\obj\CC1101.o
                0x0800406c                ISR_IRQ5_CC1101
 .text.send_Packet
                0x08004188      0x144 ..\obj\CC1101.o
                0x08004188                send_Packet
 .text.receive_Packet
                0x080042cc       0xc8 ..\obj\CC1101.o
                0x080042cc                receive_Packet
 .text.GPIO_Init
                0x08004394      0x144 ..\obj\stm32f4xx_gpio.o
                0x08004394                GPIO_Init
 .text.GPIO_StructInit
                0x080044d8       0x3c ..\obj\stm32f4xx_gpio.o
                0x080044d8                GPIO_StructInit
 .text.GPIO_ReadInputDataBit
                0x08004514       0x3c ..\obj\stm32f4xx_gpio.o
                0x08004514                GPIO_ReadInputDataBit
 .text.GPIO_SetBits
                0x08004550       0x1c ..\obj\stm32f4xx_gpio.o
                0x08004550                GPIO_SetBits
 .text.GPIO_ResetBits
                0x0800456c       0x1c ..\obj\stm32f4xx_gpio.o
                0x0800456c                GPIO_ResetBits
 .text.GPIO_ToggleBits
                0x08004588       0x24 ..\obj\stm32f4xx_gpio.o
                0x08004588                GPIO_ToggleBits
 .text.GPIO_PinAFConfig
                0x080045ac       0xa8 ..\obj\stm32f4xx_gpio.o
                0x080045ac                GPIO_PinAFConfig
 .text.SystemInit
                0x08004654       0xb0 ..\obj\system_stm32f4xx.o
                0x08004654                SystemInit
 .text.SetSysClock
                0x08004704      0x1e0 ..\obj\system_stm32f4xx.o
 .text._sbrk    0x080048e4       0x5c ..\obj\syscalls.o
                0x080048e4                _sbrk
 .text.DMA_DeInit
                0x08004940      0x244 ..\obj\stm32f4xx_dma.o
                0x08004940                DMA_DeInit
 .text.DMA_Init
                0x08004b84       0xb0 ..\obj\stm32f4xx_dma.o
                0x08004b84                DMA_Init
 .text.DMA_Cmd  0x08004c34       0x38 ..\obj\stm32f4xx_dma.o
                0x08004c34                DMA_Cmd
 .text.DMA_SetCurrDataCounter
                0x08004c6c       0x1c ..\obj\stm32f4xx_dma.o
                0x08004c6c                DMA_SetCurrDataCounter
 .text.DMA_GetCurrDataCounter
                0x08004c88       0x1c ..\obj\stm32f4xx_dma.o
                0x08004c88                DMA_GetCurrDataCounter
 .text.DMA_MemoryTargetConfig
                0x08004ca4       0x2c ..\obj\stm32f4xx_dma.o
                0x08004ca4                DMA_MemoryTargetConfig
 .text.DMA_GetFlagStatus
                0x08004cd0       0x84 ..\obj\stm32f4xx_dma.o
                0x08004cd0                DMA_GetFlagStatus
 .text.DMA_ClearFlag
                0x08004d54       0x60 ..\obj\stm32f4xx_dma.o
                0x08004d54                DMA_ClearFlag
 .text.DMA_ITConfig
                0x08004db4       0x74 ..\obj\stm32f4xx_dma.o
                0x08004db4                DMA_ITConfig
 .text.DMA_GetITStatus
                0x08004e28       0xc0 ..\obj\stm32f4xx_dma.o
                0x08004e28                DMA_GetITStatus
 .text.DMA_ClearITPendingBit
                0x08004ee8       0x60 ..\obj\stm32f4xx_dma.o
                0x08004ee8                DMA_ClearITPendingBit
 .text.PendSV_Handler
                0x08004f48       0x4c ..\obj\port.o
                0x08004f48                PendSV_Handler
 .text.CC3000_select
                0x08004f94      0x574 ..\obj\CC3000.o
                0x08004f94                CC3000_select
 .text.hci_unsol_handle_patch_request
                0x08005508      0x158 ..\obj\evnt_handler.o
                0x08005508                hci_unsol_handle_patch_request
 .text.hci_event_handler
                0x08005660      0x658 ..\obj\evnt_handler.o
                0x08005660                hci_event_handler
 .text.hci_unsol_event_handler
                0x08005cb8      0x3ac ..\obj\evnt_handler.o
                0x08005cb8                hci_unsol_event_handler
 .text.set_socket_active_status
                0x08006064       0x74 ..\obj\evnt_handler.o
                0x08006064                set_socket_active_status
 .text.hci_event_unsol_flowcontrol_handler
                0x080060d8       0xa4 ..\obj\evnt_handler.o
 .text.get_socket_active_status
                0x0800617c       0x48 ..\obj\evnt_handler.o
                0x0800617c                get_socket_active_status
 .text.update_socket_active_status
                0x080061c4       0x40 ..\obj\evnt_handler.o
 .text.SimpleLinkWaitEvent
                0x08006204       0x30 ..\obj\evnt_handler.o
                0x08006204                SimpleLinkWaitEvent
 .text.SimpleLinkWaitData
                0x08006234       0x2c ..\obj\evnt_handler.o
                0x08006234                SimpleLinkWaitData
 .text.SPI_I2S_GetFlagStatus
                0x08006260       0x40 ..\obj\stm32f4xx_spi.o
                0x08006260                SPI_I2S_GetFlagStatus
 .text.SPI_I2S_ClearFlag
                0x080062a0       0x24 ..\obj\stm32f4xx_spi.o
                0x080062a0                SPI_I2S_ClearFlag
 .text.EXTI_Init
                0x080062c4      0x138 ..\obj\stm32f4xx_exti.o
                0x080062c4                EXTI_Init
 .text.EXTI_ClearFlag
                0x080063fc       0x20 ..\obj\stm32f4xx_exti.o
                0x080063fc                EXTI_ClearFlag
 .text.EXTI_GetITStatus
                0x0800641c       0x58 ..\obj\stm32f4xx_exti.o
                0x0800641c                EXTI_GetITStatus
 .text.EXTI_ClearITPendingBit
                0x08006474       0x20 ..\obj\stm32f4xx_exti.o
                0x08006474                EXTI_ClearITPendingBit
 .text.NVIC_Init
                0x08006494       0xe4 ..\obj\misc.o
                0x08006494                NVIC_Init
 .text.RTC_Init
                0x08006578       0xc0 ..\obj\stm32f4xx_rtc.o
                0x08006578                RTC_Init
 .text.RTC_EnterInitMode
                0x08006638       0x94 ..\obj\stm32f4xx_rtc.o
                0x08006638                RTC_EnterInitMode
 .text.RTC_ExitInitMode
                0x080066cc       0x24 ..\obj\stm32f4xx_rtc.o
                0x080066cc                RTC_ExitInitMode
 .text.RTC_WaitForSynchro
                0x080066f0       0xb0 ..\obj\stm32f4xx_rtc.o
                0x080066f0                RTC_WaitForSynchro
 .text.RTC_SetTime
                0x080067a0      0x144 ..\obj\stm32f4xx_rtc.o
                0x080067a0                RTC_SetTime
 .text.RTC_GetTime
                0x080068e4       0xa8 ..\obj\stm32f4xx_rtc.o
                0x080068e4                RTC_GetTime
 .text.RTC_SetDate
                0x0800698c      0x140 ..\obj\stm32f4xx_rtc.o
                0x0800698c                RTC_SetDate
 .text.RTC_GetDate
                0x08006acc       0xa8 ..\obj\stm32f4xx_rtc.o
                0x08006acc                RTC_GetDate
 .text.RTC_SetAlarm
                0x08006b74      0x17c ..\obj\stm32f4xx_rtc.o
                0x08006b74                RTC_SetAlarm
 .text.RTC_AlarmCmd
                0x08006cf0       0xe8 ..\obj\stm32f4xx_rtc.o
                0x08006cf0                RTC_AlarmCmd
 .text.RTC_WriteBackupRegister
                0x08006dd8       0x38 ..\obj\stm32f4xx_rtc.o
                0x08006dd8                RTC_WriteBackupRegister
 .text.RTC_ReadBackupRegister
                0x08006e10       0x34 ..\obj\stm32f4xx_rtc.o
                0x08006e10                RTC_ReadBackupRegister
 .text.RTC_ITConfig
                0x08006e44       0xc0 ..\obj\stm32f4xx_rtc.o
                0x08006e44                RTC_ITConfig
 .text.RTC_ClearFlag
                0x08006f04       0x40 ..\obj\stm32f4xx_rtc.o
                0x08006f04                RTC_ClearFlag
 .text.RTC_GetITStatus
                0x08006f44       0x8c ..\obj\stm32f4xx_rtc.o
                0x08006f44                RTC_GetITStatus
 .text.RTC_ClearITPendingBit
                0x08006fd0       0x4c ..\obj\stm32f4xx_rtc.o
                0x08006fd0                RTC_ClearITPendingBit
 .text.RTC_ByteToBcd2
                0x0800701c       0x44 ..\obj\stm32f4xx_rtc.o
 .text.RTC_Bcd2ToByte
                0x08007060       0x40 ..\obj\stm32f4xx_rtc.o
 .text.TIM_TimeBaseInit
                0x080070a0       0xf4 ..\obj\stm32f4xx_tim.o
                0x080070a0                TIM_TimeBaseInit
 .text.TIM_ARRPreloadConfig
                0x08007194       0x40 ..\obj\stm32f4xx_tim.o
                0x08007194                TIM_ARRPreloadConfig
 .text.TIM_Cmd  0x080071d4       0x40 ..\obj\stm32f4xx_tim.o
                0x080071d4                TIM_Cmd
 .text.TIM_OC1Init
                0x08007214       0xfc ..\obj\stm32f4xx_tim.o
                0x08007214                TIM_OC1Init
 .text.TIM_OC1PreloadConfig
                0x08007310       0x38 ..\obj\stm32f4xx_tim.o
                0x08007310                TIM_OC1PreloadConfig
 .text.TIM_GetITStatus
                0x08007348       0x60 ..\obj\stm32f4xx_tim.o
                0x08007348                TIM_GetITStatus
 .text.TIM_ClearITPendingBit
                0x080073a8       0x24 ..\obj\stm32f4xx_tim.o
                0x080073a8                TIM_ClearITPendingBit
 .text.uart_send
                0x080073cc       0x64 ..\obj\usart.o
                0x080073cc                uart_send
 .text          0x08007430      0x370 c:/program files/gnu tools arm embedded/4.7 2014q2/bin/../lib/gcc/arm-none-eabi/4.7.4/armv7e-m/fpu\libgcc.a(_arm_addsubdf3.o)
                0x08007430                __aeabi_drsub
                0x08007438                __aeabi_dsub
                0x08007438                __subdf3
                0x0800743c                __aeabi_dadd
                0x0800743c                __adddf3
                0x080076b4                __floatunsidf
                0x080076b4                __aeabi_ui2d
                0x080076d4                __floatsidf
                0x080076d4                __aeabi_i2d
                0x080076f8                __aeabi_f2d
                0x080076f8                __extendsfdf2
                0x08007734                __floatundidf
                0x08007734                __aeabi_ul2d
                0x08007744                __floatdidf
                0x08007744                __aeabi_l2d
 .text          0x080077a0      0x424 c:/program files/gnu tools arm embedded/4.7 2014q2/bin/../lib/gcc/arm-none-eabi/4.7.4/armv7e-m/fpu\libgcc.a(_arm_muldivdf3.o)
                0x080077a0                __aeabi_dmul
                0x080077a0                __muldf3
                0x080079f4                __divdf3
                0x080079f4                __aeabi_ddiv
 .text          0x08007bc4      0x110 c:/program files/gnu tools arm embedded/4.7 2014q2/bin/../lib/gcc/arm-none-eabi/4.7.4/armv7e-m/fpu\libgcc.a(_arm_cmpdf2.o)
                0x08007bc4                __gtdf2
                0x08007bc4                __gedf2
                0x08007bcc                __ltdf2
                0x08007bcc                __ledf2
                0x08007bd4                __nedf2
                0x08007bd4                __eqdf2
                0x08007bd4                __cmpdf2
                0x08007c50                __aeabi_cdrcmple
                0x08007c60                __aeabi_cdcmpeq
                0x08007c60                __aeabi_cdcmple
                0x08007c70                __aeabi_dcmpeq
                0x08007c84                __aeabi_dcmplt
                0x08007c98                __aeabi_dcmple
                0x08007cac                __aeabi_dcmpge
                0x08007cc0                __aeabi_dcmpgt
 .text          0x08007cd4       0x50 c:/program files/gnu tools arm embedded/4.7 2014q2/bin/../lib/gcc/arm-none-eabi/4.7.4/armv7e-m/fpu\libgcc.a(_arm_fixdfsi.o)
                0x08007cd4                __aeabi_d2iz
                0x08007cd4                __fixdfsi
 .text          0x08007d24       0xa0 c:/program files/gnu tools arm embedded/4.7 2014q2/bin/../lib/gcc/arm-none-eabi/4.7.4/armv7e-m/fpu\libgcc.a(_arm_truncdfsf2.o)
                0x08007d24                __truncdfsf2
                0x08007d24                __aeabi_d2f
 .text.__errno  0x08007dc4        0xc c:/program files/gnu tools arm embedded/4.7 2014q2/bin/../lib/gcc/arm-none-eabi/4.7.4/../../../../arm-none-eabi/lib/armv7e-m/fpu\libg.a(lib_a-errno.o)
                0x08007dc4                __errno
 .text._malloc_r
                0x08007dd0      0x55c c:/program files/gnu tools arm embedded/4.7 2014q2/bin/../lib/gcc/arm-none-eabi/4.7.4/../../../../arm-none-eabi/lib/armv7e-m/fpu\libg.a(lib_a-mallocr.o)
                0x08007dd0                _malloc_r
 .text.memcpy   0x0800832c      0x144 c:/program files/gnu tools arm embedded/4.7 2014q2/bin/../lib/gcc/arm-none-eabi/4.7.4/../../../../arm-none-eabi/lib/armv7e-m/fpu\libg.a(lib_a-memcpy.o)
                0x0800832c                memcpy
 .text.memset   0x08008470      0x12c c:/program files/gnu tools arm embedded/4.7 2014q2/bin/../lib/gcc/arm-none-eabi/4.7.4/../../../../arm-none-eabi/lib/armv7e-m/fpu\libg.a(lib_a-memset.o)
                0x08008470                memset
 .text.__malloc_lock
                0x0800859c        0x4 c:/program files/gnu tools arm embedded/4.7 2014q2/bin/../lib/gcc/arm-none-eabi/4.7.4/../../../../arm-none-eabi/lib/armv7e-m/fpu\libg.a(lib_a-mlock.o)
                0x0800859c                __malloc_lock
 .text.__malloc_unlock
                0x080085a0        0x4 c:/program files/gnu tools arm embedded/4.7 2014q2/bin/../lib/gcc/arm-none-eabi/4.7.4/../../../../arm-none-eabi/lib/armv7e-m/fpu\libg.a(lib_a-mlock.o)
                0x080085a0                __malloc_unlock
 .text._sbrk_r  0x080085a4       0x24 c:/program files/gnu tools arm embedded/4.7 2014q2/bin/../lib/gcc/arm-none-eabi/4.7.4/../../../../arm-none-eabi/lib/armv7e-m/fpu\libg.a(lib_a-sbrkr.o)
                0x080085a4                _sbrk_r
 .text.sprintf  0x080085c8       0x50 c:/program files/gnu tools arm embedded/4.7 2014q2/bin/../lib/gcc/arm-none-eabi/4.7.4/../../../../arm-none-eabi/lib/armv7e-m/fpu\libg.a(lib_a-sprintf.o)
                0x080085c8                sprintf
 .text.sscanf   0x08008618       0x5c c:/program files/gnu tools arm embedded/4.7 2014q2/bin/../lib/gcc/arm-none-eabi/4.7.4/../../../../arm-none-eabi/lib/armv7e-m/fpu\libg.a(lib_a-sscanf.o)
                0x08008618                sscanf
 .text.__seofread
                0x08008674        0x4 c:/program files/gnu tools arm embedded/4.7 2014q2/bin/../lib/gcc/arm-none-eabi/4.7.4/../../../../arm-none-eabi/lib/armv7e-m/fpu\libg.a(lib_a-stdio.o)
                0x08008674                __seofread
 .text.strlen   0x08008678       0x60 c:/program files/gnu tools arm embedded/4.7 2014q2/bin/../lib/gcc/arm-none-eabi/4.7.4/../../../../arm-none-eabi/lib/armv7e-m/fpu\libg.a(lib_a-strlen.o)
                0x08008678                strlen
 .text._svfprintf_r
                0x080086d8     0x1b14 c:/program files/gnu tools arm embedded/4.7 2014q2/bin/../lib/gcc/arm-none-eabi/4.7.4/../../../../arm-none-eabi/lib/armv7e-m/fpu\libg.a(lib_a-svfprintf.o)
                0x080086d8                _svfprintf_r
 .text.__ssvfscanf_r
                0x0800a1ec     0x1208 c:/program files/gnu tools arm embedded/4.7 2014q2/bin/../lib/gcc/arm-none-eabi/4.7.4/../../../../arm-none-eabi/lib/armv7e-m/fpu\libg.a(lib_a-svfscanf.o)
                0x0800a1ec                __ssvfscanf_r
 .text.quorem   0x0800b3f4      0x2ec c:/program files/gnu tools arm embedded/4.7 2014q2/bin/../lib/gcc/arm-none-eabi/4.7.4/../../../../arm-none-eabi/lib/armv7e-m/fpu\libg.a(lib_a-dtoa.o)
 .text._dtoa_r  0x0800b6e0     0x1260 c:/program files/gnu tools arm embedded/4.7 2014q2/bin/../lib/gcc/arm-none-eabi/4.7.4/../../../../arm-none-eabi/lib/armv7e-m/fpu\libg.a(lib_a-dtoa.o)
                0x0800b6e0                _dtoa_r
 .text.__sfp_lock_acquire
                0x0800c940        0x4 c:/program files/gnu tools arm embedded/4.7 2014q2/bin/../lib/gcc/arm-none-eabi/4.7.4/../../../../arm-none-eabi/lib/armv7e-m/fpu\libg.a(lib_a-findfp.o)
                0x0800c940                __sfp_lock_acquire
 .text.__sfp_lock_release
                0x0800c944        0x4 c:/program files/gnu tools arm embedded/4.7 2014q2/bin/../lib/gcc/arm-none-eabi/4.7.4/../../../../arm-none-eabi/lib/armv7e-m/fpu\libg.a(lib_a-findfp.o)
                0x0800c944                __sfp_lock_release
 .text._malloc_trim_r
                0x0800c948       0x98 c:/program files/gnu tools arm embedded/4.7 2014q2/bin/../lib/gcc/arm-none-eabi/4.7.4/../../../../arm-none-eabi/lib/armv7e-m/fpu\libg.a(lib_a-freer.o)
                0x0800c948                _malloc_trim_r
 .text._free_r  0x0800c9e0      0x194 c:/program files/gnu tools arm embedded/4.7 2014q2/bin/../lib/gcc/arm-none-eabi/4.7.4/../../../../arm-none-eabi/lib/armv7e-m/fpu\libg.a(lib_a-freer.o)
                0x0800c9e0                _free_r
 .text.iswspace
                0x0800cb74       0x1c c:/program files/gnu tools arm embedded/4.7 2014q2/bin/../lib/gcc/arm-none-eabi/4.7.4/../../../../arm-none-eabi/lib/armv7e-m/fpu\libg.a(lib_a-iswspace.o)
                0x0800cb74                iswspace
 .text.__locale_charset
                0x0800cb90        0xc c:/program files/gnu tools arm embedded/4.7 2014q2/bin/../lib/gcc/arm-none-eabi/4.7.4/../../../../arm-none-eabi/lib/armv7e-m/fpu\libg.a(lib_a-locale.o)
                0x0800cb90                __locale_charset
 .text.__locale_mb_cur_max
                0x0800cb9c        0xc c:/program files/gnu tools arm embedded/4.7 2014q2/bin/../lib/gcc/arm-none-eabi/4.7.4/../../../../arm-none-eabi/lib/armv7e-m/fpu\libg.a(lib_a-locale.o)
                0x0800cb9c                __locale_mb_cur_max
 .text._localeconv_r
                0x0800cba8        0xc c:/program files/gnu tools arm embedded/4.7 2014q2/bin/../lib/gcc/arm-none-eabi/4.7.4/../../../../arm-none-eabi/lib/armv7e-m/fpu\libg.a(lib_a-locale.o)
                0x0800cba8                _localeconv_r
 .text._mbrtowc_r
                0x0800cbb4       0x5c c:/program files/gnu tools arm embedded/4.7 2014q2/bin/../lib/gcc/arm-none-eabi/4.7.4/../../../../arm-none-eabi/lib/armv7e-m/fpu\libg.a(lib_a-mbrtowc.o)
                0x0800cbb4                _mbrtowc_r
 .text.__ascii_mbtowc
                0x0800cc10       0x28 c:/program files/gnu tools arm embedded/4.7 2014q2/bin/../lib/gcc/arm-none-eabi/4.7.4/../../../../arm-none-eabi/lib/armv7e-m/fpu\libg.a(lib_a-mbtowc_r.o)
                0x0800cc10                __ascii_mbtowc
 .text.memchr   0x0800cc38      0x140 c:/program files/gnu tools arm embedded/4.7 2014q2/bin/../lib/gcc/arm-none-eabi/4.7.4/../../../../arm-none-eabi/lib/armv7e-m/fpu\libg.a(lib_a-memchr.o)
                0x0800cc38                memchr
 .text._Balloc  0x0800cd78       0x4c c:/program files/gnu tools arm embedded/4.7 2014q2/bin/../lib/gcc/arm-none-eabi/4.7.4/../../../../arm-none-eabi/lib/armv7e-m/fpu\libg.a(lib_a-mprec.o)
                0x0800cd78                _Balloc
 .text._Bfree   0x0800cdc4       0x14 c:/program files/gnu tools arm embedded/4.7 2014q2/bin/../lib/gcc/arm-none-eabi/4.7.4/../../../../arm-none-eabi/lib/armv7e-m/fpu\libg.a(lib_a-mprec.o)
                0x0800cdc4                _Bfree
 .text.__multadd
                0x0800cdd8       0xf8 c:/program files/gnu tools arm embedded/4.7 2014q2/bin/../lib/gcc/arm-none-eabi/4.7.4/../../../../arm-none-eabi/lib/armv7e-m/fpu\libg.a(lib_a-mprec.o)
                0x0800cdd8                __multadd
 .text.__s2b    0x0800ced0      0x140 c:/program files/gnu tools arm embedded/4.7 2014q2/bin/../lib/gcc/arm-none-eabi/4.7.4/../../../../arm-none-eabi/lib/armv7e-m/fpu\libg.a(lib_a-mprec.o)
                0x0800ced0                __s2b
 .text.__hi0bits
                0x0800d010       0x3c c:/program files/gnu tools arm embedded/4.7 2014q2/bin/../lib/gcc/arm-none-eabi/4.7.4/../../../../arm-none-eabi/lib/armv7e-m/fpu\libg.a(lib_a-mprec.o)
                0x0800d010                __hi0bits
 .text.__lo0bits
                0x0800d04c       0x5c c:/program files/gnu tools arm embedded/4.7 2014q2/bin/../lib/gcc/arm-none-eabi/4.7.4/../../../../arm-none-eabi/lib/armv7e-m/fpu\libg.a(lib_a-mprec.o)
                0x0800d04c                __lo0bits
 .text.__i2b    0x0800d0a8       0x14 c:/program files/gnu tools arm embedded/4.7 2014q2/bin/../lib/gcc/arm-none-eabi/4.7.4/../../../../arm-none-eabi/lib/armv7e-m/fpu\libg.a(lib_a-mprec.o)
                0x0800d0a8                __i2b
 .text.__multiply
                0x0800d0bc      0x2d0 c:/program files/gnu tools arm embedded/4.7 2014q2/bin/../lib/gcc/arm-none-eabi/4.7.4/../../../../arm-none-eabi/lib/armv7e-m/fpu\libg.a(lib_a-mprec.o)
                0x0800d0bc                __multiply
 .text.__pow5mult
                0x0800d38c       0x94 c:/program files/gnu tools arm embedded/4.7 2014q2/bin/../lib/gcc/arm-none-eabi/4.7.4/../../../../arm-none-eabi/lib/armv7e-m/fpu\libg.a(lib_a-mprec.o)
                0x0800d38c                __pow5mult
 .text.__lshift
                0x0800d420      0x188 c:/program files/gnu tools arm embedded/4.7 2014q2/bin/../lib/gcc/arm-none-eabi/4.7.4/../../../../arm-none-eabi/lib/armv7e-m/fpu\libg.a(lib_a-mprec.o)
                0x0800d420                __lshift
 .text.__mcmp   0x0800d5a8       0x5c c:/program files/gnu tools arm embedded/4.7 2014q2/bin/../lib/gcc/arm-none-eabi/4.7.4/../../../../arm-none-eabi/lib/armv7e-m/fpu\libg.a(lib_a-mprec.o)
                0x0800d5a8                __mcmp
 .text.__mdiff  0x0800d604      0x20c c:/program files/gnu tools arm embedded/4.7 2014q2/bin/../lib/gcc/arm-none-eabi/4.7.4/../../../../arm-none-eabi/lib/armv7e-m/fpu\libg.a(lib_a-mprec.o)
                0x0800d604                __mdiff
 .text.__ulp    0x0800d810       0x54 c:/program files/gnu tools arm embedded/4.7 2014q2/bin/../lib/gcc/arm-none-eabi/4.7.4/../../../../arm-none-eabi/lib/armv7e-m/fpu\libg.a(lib_a-mprec.o)
                0x0800d810                __ulp
 .text.__b2d    0x0800d864       0xc4 c:/program files/gnu tools arm embedded/4.7 2014q2/bin/../lib/gcc/arm-none-eabi/4.7.4/../../../../arm-none-eabi/lib/armv7e-m/fpu\libg.a(lib_a-mprec.o)
                0x0800d864                __b2d
 .text.__d2b    0x0800d928       0xb4 c:/program files/gnu tools arm embedded/4.7 2014q2/bin/../lib/gcc/arm-none-eabi/4.7.4/../../../../arm-none-eabi/lib/armv7e-m/fpu\libg.a(lib_a-mprec.o)
                0x0800d928                __d2b
 .text.__ratio  0x0800d9dc       0x5c c:/program files/gnu tools arm embedded/4.7 2014q2/bin/../lib/gcc/arm-none-eabi/4.7.4/../../../../arm-none-eabi/lib/armv7e-m/fpu\libg.a(lib_a-mprec.o)
                0x0800d9dc                __ratio
 .text.__copybits
                0x0800da38       0xa4 c:/program files/gnu tools arm embedded/4.7 2014q2/bin/../lib/gcc/arm-none-eabi/4.7.4/../../../../arm-none-eabi/lib/armv7e-m/fpu\libg.a(lib_a-mprec.o)
                0x0800da38                __copybits
 .text.__any_on
                0x0800dadc       0x74 c:/program files/gnu tools arm embedded/4.7 2014q2/bin/../lib/gcc/arm-none-eabi/4.7.4/../../../../arm-none-eabi/lib/armv7e-m/fpu\libg.a(lib_a-mprec.o)
                0x0800dadc                __any_on
 .text.__fpclassifyd
                0x0800db50       0x70 c:/program files/gnu tools arm embedded/4.7 2014q2/bin/../lib/gcc/arm-none-eabi/4.7.4/../../../../arm-none-eabi/lib/armv7e-m/fpu\libg.a(lib_a-s_fpclassify.o)
                0x0800db50                __fpclassifyd
 .text.__sccl   0x0800dbc0       0x94 c:/program files/gnu tools arm embedded/4.7 2014q2/bin/../lib/gcc/arm-none-eabi/4.7.4/../../../../arm-none-eabi/lib/armv7e-m/fpu\libg.a(lib_a-sccl.o)
                0x0800dbc0                __sccl
 .text.nanf     0x0800dc54        0xc c:/program files/gnu tools arm embedded/4.7 2014q2/bin/../lib/gcc/arm-none-eabi/4.7.4/../../../../arm-none-eabi/lib/armv7e-m/fpu\libg.a(lib_a-sf_nan.o)
                0x0800dc54                nanf
 .text._strtod_r
                0x0800dc60      0xee8 c:/program files/gnu tools arm embedded/4.7 2014q2/bin/../lib/gcc/arm-none-eabi/4.7.4/../../../../arm-none-eabi/lib/armv7e-m/fpu\libg.a(lib_a-strtod.o)
                0x0800dc60                _strtod_r
 .text._strtol_r
                0x0800eb48      0x134 c:/program files/gnu tools arm embedded/4.7 2014q2/bin/../lib/gcc/arm-none-eabi/4.7.4/../../../../arm-none-eabi/lib/armv7e-m/fpu\libg.a(lib_a-strtol.o)
                0x0800eb48                _strtol_r
 .text._strtoll_r
                0x0800ec7c      0x1b8 c:/program files/gnu tools arm embedded/4.7 2014q2/bin/../lib/gcc/arm-none-eabi/4.7.4/../../../../arm-none-eabi/lib/armv7e-m/fpu\libg.a(lib_a-strtoll_r.o)
                0x0800ec7c                _strtoll_r
 .text._strtoul_r
                0x0800ee34      0x150 c:/program files/gnu tools arm embedded/4.7 2014q2/bin/../lib/gcc/arm-none-eabi/4.7.4/../../../../arm-none-eabi/lib/armv7e-m/fpu\libg.a(lib_a-strtoul.o)
                0x0800ee34                _strtoul_r
 .text._strtoull_r
                0x0800ef84      0x1fc c:/program files/gnu tools arm embedded/4.7 2014q2/bin/../lib/gcc/arm-none-eabi/4.7.4/../../../../arm-none-eabi/lib/armv7e-m/fpu\libg.a(lib_a-strtoull_r.o)
                0x0800ef84                _strtoull_r
 .text.__ssprint_r
                0x0800f180      0x100 c:/program files/gnu tools arm embedded/4.7 2014q2/bin/../lib/gcc/arm-none-eabi/4.7.4/../../../../arm-none-eabi/lib/armv7e-m/fpu\libg.a(lib_a-svfiprintf.o)
                0x0800f180                __ssprint_r
 .text._sungetc_r
                0x0800f280       0x80 c:/program files/gnu tools arm embedded/4.7 2014q2/bin/../lib/gcc/arm-none-eabi/4.7.4/../../../../arm-none-eabi/lib/armv7e-m/fpu\libg.a(lib_a-svfiscanf.o)
                0x0800f280                _sungetc_r
 .text.__ssrefill_r
                0x0800f300       0x3c c:/program files/gnu tools arm embedded/4.7 2014q2/bin/../lib/gcc/arm-none-eabi/4.7.4/../../../../arm-none-eabi/lib/armv7e-m/fpu\libg.a(lib_a-svfiscanf.o)
                0x0800f300                __ssrefill_r
 .text._sfread_r
                0x0800f33c       0x7c c:/program files/gnu tools arm embedded/4.7 2014q2/bin/../lib/gcc/arm-none-eabi/4.7.4/../../../../arm-none-eabi/lib/armv7e-m/fpu\libg.a(lib_a-svfiscanf.o)
                0x0800f33c                _sfread_r
 .text.__submore
                0x0800f3b8       0x78 c:/program files/gnu tools arm embedded/4.7 2014q2/bin/../lib/gcc/arm-none-eabi/4.7.4/../../../../arm-none-eabi/lib/armv7e-m/fpu\libg.a(lib_a-ungetc.o)
                0x0800f3b8                __submore
 .text._calloc_r
                0x0800f430       0x60 c:/program files/gnu tools arm embedded/4.7 2014q2/bin/../lib/gcc/arm-none-eabi/4.7.4/../../../../arm-none-eabi/lib/armv7e-m/fpu\libg.a(lib_a-callocr.o)
                0x0800f430                _calloc_r
 .text.rshift   0x0800f490      0x13c c:/program files/gnu tools arm embedded/4.7 2014q2/bin/../lib/gcc/arm-none-eabi/4.7.4/../../../../arm-none-eabi/lib/armv7e-m/fpu\libg.a(lib_a-gdtoa-gethex.o)
 .text.__hexdig_init
                0x0800f5cc       0x50 c:/program files/gnu tools arm embedded/4.7 2014q2/bin/../lib/gcc/arm-none-eabi/4.7.4/../../../../arm-none-eabi/lib/armv7e-m/fpu\libg.a(lib_a-gdtoa-gethex.o)
                0x0800f5cc                __hexdig_init
 .text.__gethex
                0x0800f61c      0x58c c:/program files/gnu tools arm embedded/4.7 2014q2/bin/../lib/gcc/arm-none-eabi/4.7.4/../../../../arm-none-eabi/lib/armv7e-m/fpu\libg.a(lib_a-gdtoa-gethex.o)
                0x0800f61c                __gethex
 .text.__hexnan
                0x0800fba8      0x2f0 c:/program files/gnu tools arm embedded/4.7 2014q2/bin/../lib/gcc/arm-none-eabi/4.7.4/../../../../arm-none-eabi/lib/armv7e-m/fpu\libg.a(lib_a-gdtoa-hexnan.o)
                0x0800fba8                __hexnan
 .text.memmove  0x0800fe98      0x198 c:/program files/gnu tools arm embedded/4.7 2014q2/bin/../lib/gcc/arm-none-eabi/4.7.4/../../../../arm-none-eabi/lib/armv7e-m/fpu\libg.a(lib_a-memmove.o)
                0x0800fe98                memmove
 .text._realloc_r
                0x08010030      0x3dc c:/program files/gnu tools arm embedded/4.7 2014q2/bin/../lib/gcc/arm-none-eabi/4.7.4/../../../../arm-none-eabi/lib/armv7e-m/fpu\libg.a(lib_a-reallocr.o)
                0x08010030                _realloc_r
 .text.strncmp  0x0801040c      0x120 c:/program files/gnu tools arm embedded/4.7 2014q2/bin/../lib/gcc/arm-none-eabi/4.7.4/../../../../arm-none-eabi/lib/armv7e-m/fpu\libg.a(lib_a-strncmp.o)
                0x0801040c                strncmp
 .text          0x0801052c       0x40 c:/program files/gnu tools arm embedded/4.7 2014q2/bin/../lib/gcc/arm-none-eabi/4.7.4/armv7e-m/fpu\libgcc.a(_arm_fixunsdfsi.o)
                0x0801052c                __aeabi_d2uiz
                0x0801052c                __fixunsdfsi
 .text          0x0801056c       0x2c c:/program files/gnu tools arm embedded/4.7 2014q2/bin/../lib/gcc/arm-none-eabi/4.7.4/armv7e-m/fpu\libgcc.a(_aeabi_uldivmod.o)
                0x0801056c                __aeabi_uldivmod
 .text          0x08010598       0x58 c:/program files/gnu tools arm embedded/4.7 2014q2/bin/../lib/gcc/arm-none-eabi/4.7.4/armv7e-m/fpu\libgcc.a(bpabi.o)
                0x08010598                __gnu_ldivmod_helper
                0x080105c4                __gnu_uldivmod_helper
 .text          0x080105f0        0x4 c:/program files/gnu tools arm embedded/4.7 2014q2/bin/../lib/gcc/arm-none-eabi/4.7.4/armv7e-m/fpu\libgcc.a(_dvmd_tls.o)
                0x080105f0                __aeabi_idiv0
                0x080105f0                __aeabi_ldiv0
 .text          0x080105f4      0x2bc c:/program files/gnu tools arm embedded/4.7 2014q2/bin/../lib/gcc/arm-none-eabi/4.7.4/armv7e-m/fpu\libgcc.a(_divdi3.o)
                0x080105f4                __divdi3
 .text          0x080108b0      0x288 c:/program files/gnu tools arm embedded/4.7 2014q2/bin/../lib/gcc/arm-none-eabi/4.7.4/armv7e-m/fpu\libgcc.a(_udivdi3.o)
                0x080108b0                __udivdi3
 *(.init)
 *(.fini)
 *crtbegin.o(.ctors)
 *crtbegin?.o(.ctors)
 *(EXCLUDE_FILE(*crtend.o *crtend?.o) .ctors)
 *(SORT(.ctors.*))
 *(.ctors)
 *crtbegin.o(.dtors)
 *crtbegin?.o(.dtors)
 *(EXCLUDE_FILE(*crtend.o *crtend?.o) .dtors)
 *(SORT(.dtors.*))
 *(.dtors)
 *(.rodata*)
 .rodata        0x08010b38       0x40 ..\obj\spi.o
 .rodata        0x08010b78      0x158 ..\obj\interrupts.o
 .rodata        0x08010cd0      0x138 ..\obj\aufgabe6.o
 .rodata        0x08010e08      0x950 ..\obj\CC3000.o
                0x08010e08                smartconfigkey
 .rodata.str1.4
                0x08011758        0x2 c:/program files/gnu tools arm embedded/4.7 2014q2/bin/../lib/gcc/arm-none-eabi/4.7.4/../../../../arm-none-eabi/lib/armv7e-m/fpu\libg.a(lib_a-impure.o)
                                  0x4 (size before relaxing)
 *fill*         0x0801175a        0x2 00
 .rodata.str1.4
                0x0801175c       0x42 c:/program files/gnu tools arm embedded/4.7 2014q2/bin/../lib/gcc/arm-none-eabi/4.7.4/../../../../arm-none-eabi/lib/armv7e-m/fpu\libg.a(lib_a-svfprintf.o)
                                 0x44 (size before relaxing)
 *fill*         0x0801179e        0x2 00
 .rodata.zeroes.6721
                0x080117a0       0x10 c:/program files/gnu tools arm embedded/4.7 2014q2/bin/../lib/gcc/arm-none-eabi/4.7.4/../../../../arm-none-eabi/lib/armv7e-m/fpu\libg.a(lib_a-svfprintf.o)
 .rodata.blanks.6720
                0x080117b0       0x10 c:/program files/gnu tools arm embedded/4.7 2014q2/bin/../lib/gcc/arm-none-eabi/4.7.4/../../../../arm-none-eabi/lib/armv7e-m/fpu\libg.a(lib_a-svfprintf.o)
 .rodata.basefix.6637
                0x080117c0       0x24 c:/program files/gnu tools arm embedded/4.7 2014q2/bin/../lib/gcc/arm-none-eabi/4.7.4/../../../../arm-none-eabi/lib/armv7e-m/fpu\libg.a(lib_a-svfscanf.o)
 .rodata.str1.4
                0x080117e4        0x5 c:/program files/gnu tools arm embedded/4.7 2014q2/bin/../lib/gcc/arm-none-eabi/4.7.4/../../../../arm-none-eabi/lib/armv7e-m/fpu\libg.a(lib_a-svfscanf.o)
                                  0x8 (size before relaxing)
 *fill*         0x080117e9        0x3 00
 .rodata._ctype_
                0x080117ec      0x104 c:/program files/gnu tools arm embedded/4.7 2014q2/bin/../lib/gcc/arm-none-eabi/4.7.4/../../../../arm-none-eabi/lib/armv7e-m/fpu\libg.a(lib_a-ctype_.o)
                0x080117ec                _ctype_
 .rodata.str1.4
                0x080118f0       0x10 c:/program files/gnu tools arm embedded/4.7 2014q2/bin/../lib/gcc/arm-none-eabi/4.7.4/../../../../arm-none-eabi/lib/armv7e-m/fpu\libg.a(lib_a-dtoa.o)
                                 0x14 (size before relaxing)
 .rodata.str1.4
                0x08011900        0xa c:/program files/gnu tools arm embedded/4.7 2014q2/bin/../lib/gcc/arm-none-eabi/4.7.4/../../../../arm-none-eabi/lib/armv7e-m/fpu\libg.a(lib_a-locale.o)
                                 0x14 (size before relaxing)
 .rodata.str1.4
                0x00000000        0x4 c:/program files/gnu tools arm embedded/4.7 2014q2/bin/../lib/gcc/arm-none-eabi/4.7.4/../../../../arm-none-eabi/lib/armv7e-m/fpu\libg.a(lib_a-mbrtowc.o)
 *fill*         0x0801190a        0x2 00
 .rodata.p05.5242
                0x0801190c        0xc c:/program files/gnu tools arm embedded/4.7 2014q2/bin/../lib/gcc/arm-none-eabi/4.7.4/../../../../arm-none-eabi/lib/armv7e-m/fpu\libg.a(lib_a-mprec.o)
 .rodata.__mprec_tens
                0x08011918       0xc8 c:/program files/gnu tools arm embedded/4.7 2014q2/bin/../lib/gcc/arm-none-eabi/4.7.4/../../../../arm-none-eabi/lib/armv7e-m/fpu\libg.a(lib_a-mprec.o)
                0x08011918                __mprec_tens
 .rodata.__mprec_bigtens
                0x080119e0       0x28 c:/program files/gnu tools arm embedded/4.7 2014q2/bin/../lib/gcc/arm-none-eabi/4.7.4/../../../../arm-none-eabi/lib/armv7e-m/fpu\libg.a(lib_a-mprec.o)
                0x080119e0                __mprec_bigtens
 .rodata.str1.4
                0x08011a08        0xf c:/program files/gnu tools arm embedded/4.7 2014q2/bin/../lib/gcc/arm-none-eabi/4.7.4/../../../../arm-none-eabi/lib/armv7e-m/fpu\libg.a(lib_a-strtod.o)
                                 0x10 (size before relaxing)
 *fill*         0x08011a17        0x1 00
 .rodata.tinytens
                0x08011a18       0x28 c:/program files/gnu tools arm embedded/4.7 2014q2/bin/../lib/gcc/arm-none-eabi/4.7.4/../../../../arm-none-eabi/lib/armv7e-m/fpu\libg.a(lib_a-strtod.o)
 .rodata.str1.4
                0x08011a40       0x1c c:/program files/gnu tools arm embedded/4.7 2014q2/bin/../lib/gcc/arm-none-eabi/4.7.4/../../../../arm-none-eabi/lib/armv7e-m/fpu\libg.a(lib_a-gdtoa-gethex.o)
 *(.eh_fram e*)

.glue_7         0x08011a5c        0x0
 .glue_7        0x00000000        0x0 linker stubs

.glue_7t        0x08011a5c        0x0
 .glue_7t       0x00000000        0x0 linker stubs

.vfp11_veneer   0x08011a5c        0x0
 .vfp11_veneer  0x00000000        0x0 linker stubs

.v4_bx          0x08011a5c        0x0
 .v4_bx         0x00000000        0x0 linker stubs

.iplt           0x08011a5c        0x0
 .iplt          0x00000000        0x0 ..\obj\socket.o

.ARM.extab
 *(.ARM.extab* .gnu.linkonce.armextab.*)
                0x08011a5c                __exidx_start = .

.ARM.exidx      0x08011a5c        0x8
 *(.ARM.exidx* .gnu.linkonce.armexidx.*)
 .ARM.exidx     0x08011a5c        0x8 c:/program files/gnu tools arm embedded/4.7 2014q2/bin/../lib/gcc/arm-none-eabi/4.7.4/armv7e-m/fpu\libgcc.a(_divdi3.o)
 .ARM.exidx     0x08011a64        0x0 c:/program files/gnu tools arm embedded/4.7 2014q2/bin/../lib/gcc/arm-none-eabi/4.7.4/armv7e-m/fpu\libgcc.a(_udivdi3.o)
                                  0x8 (size before relaxing)
                0x08011a64                __exidx_end = .
                0x08011a64                __etext = .
                0x08011a64                _sidata = __etext

.rel.dyn        0x08011a64        0x0
 .rel.iplt      0x00000000        0x0 ..\obj\socket.o

.data           0x20000000      0xc00 load address 0x08011a64
                0x20000000                __data_start__ = .
                0x20000000                _sdata = __data_start__
 *(vtable)
 *(.data*)
 .data          0x20000000       0x10 ..\obj\spi.o
                0x20000000                tSpiReadHeader
                0x2000000c                tx_spi
 .data          0x20000010      0x300 ..\obj\aufgabe8.o
                0x20000010                imperial_march
 .data          0x20000310       0x10 ..\obj\stm32f4xx_rcc.o
 .data          0x20000320       0x14 ..\obj\system_stm32f4xx.o
                0x20000320                SystemCoreClock
                0x20000324                AHBPrescTable
 .data          0x20000334        0x4 ..\obj\evnt_handler.o
                0x20000334                socket_active_status
 .data.impure_data
                0x20000338      0x428 c:/program files/gnu tools arm embedded/4.7 2014q2/bin/../lib/gcc/arm-none-eabi/4.7.4/../../../../arm-none-eabi/lib/armv7e-m/fpu\libg.a(lib_a-impure.o)
 .data._impure_ptr
                0x20000760        0x4 c:/program files/gnu tools arm embedded/4.7 2014q2/bin/../lib/gcc/arm-none-eabi/4.7.4/../../../../arm-none-eabi/lib/armv7e-m/fpu\libg.a(lib_a-impure.o)
                0x20000760                _impure_ptr
 .data.__malloc_av_
                0x20000764      0x408 c:/program files/gnu tools arm embedded/4.7 2014q2/bin/../lib/gcc/arm-none-eabi/4.7.4/../../../../arm-none-eabi/lib/armv7e-m/fpu\libg.a(lib_a-mallocr.o)
                0x20000764                __malloc_av_
 .data.__malloc_trim_threshold
                0x20000b6c        0x4 c:/program files/gnu tools arm embedded/4.7 2014q2/bin/../lib/gcc/arm-none-eabi/4.7.4/../../../../arm-none-eabi/lib/armv7e-m/fpu\libg.a(lib_a-mallocr.o)
                0x20000b6c                __malloc_trim_threshold
 .data.__malloc_sbrk_base
                0x20000b70        0x4 c:/program files/gnu tools arm embedded/4.7 2014q2/bin/../lib/gcc/arm-none-eabi/4.7.4/../../../../arm-none-eabi/lib/armv7e-m/fpu\libg.a(lib_a-mallocr.o)
                0x20000b70                __malloc_sbrk_base
 .data.__ctype_ptr__
                0x20000b74        0x4 c:/program files/gnu tools arm embedded/4.7 2014q2/bin/../lib/gcc/arm-none-eabi/4.7.4/../../../../arm-none-eabi/lib/armv7e-m/fpu\libg.a(lib_a-ctype_.o)
                0x20000b74                __ctype_ptr__
 .data.lconv    0x20000b78       0x38 c:/program files/gnu tools arm embedded/4.7 2014q2/bin/../lib/gcc/arm-none-eabi/4.7.4/../../../../arm-none-eabi/lib/armv7e-m/fpu\libg.a(lib_a-locale.o)
 .data.lc_ctype_charset
                0x20000bb0       0x20 c:/program files/gnu tools arm embedded/4.7 2014q2/bin/../lib/gcc/arm-none-eabi/4.7.4/../../../../arm-none-eabi/lib/armv7e-m/fpu\libg.a(lib_a-locale.o)
 .data.__mb_cur_max
                0x20000bd0        0x4 c:/program files/gnu tools arm embedded/4.7 2014q2/bin/../lib/gcc/arm-none-eabi/4.7.4/../../../../arm-none-eabi/lib/armv7e-m/fpu\libg.a(lib_a-locale.o)
                0x20000bd0                __mb_cur_max
 .data.__mbtowc
                0x20000bd4        0x4 c:/program files/gnu tools arm embedded/4.7 2014q2/bin/../lib/gcc/arm-none-eabi/4.7.4/../../../../arm-none-eabi/lib/armv7e-m/fpu\libg.a(lib_a-mbtowc_r.o)
                0x20000bd4                __mbtowc
 .data.fpi.5202
                0x20000bd8       0x14 c:/program files/gnu tools arm embedded/4.7 2014q2/bin/../lib/gcc/arm-none-eabi/4.7.4/../../../../arm-none-eabi/lib/armv7e-m/fpu\libg.a(lib_a-strtod.o)
 .data.fpinan.5238
                0x20000bec       0x14 c:/program files/gnu tools arm embedded/4.7 2014q2/bin/../lib/gcc/arm-none-eabi/4.7.4/../../../../arm-none-eabi/lib/armv7e-m/fpu\libg.a(lib_a-strtod.o)
                0x20000c00                . = ALIGN (0x4)
                0x20000c00                PROVIDE (__preinit_array_start, .)
 *(.preinit_array)
                0x20000c00                PROVIDE (__preinit_array_end, .)
                0x20000c00                . = ALIGN (0x4)
                0x20000c00                PROVIDE (__init_array_start, .)
 *(SORT(.init_array.*))
 *(.init_array)
                0x20000c00                PROVIDE (__init_array_end, .)
                0x20000c00                . = ALIGN (0x4)
                0x20000c00                PROVIDE (__fini_array_start, .)
 *(SORT(.fini_array.*))
 *(.fini_array)
                0x20000c00                PROVIDE (__fini_array_end, .)
 *(.jcr*)
                0x20000c00                . = ALIGN (0x4)
                0x20000c00                __data_end__ = .
                0x20000c00                _edata = __data_end__

.igot.plt       0x20000c00        0x0 load address 0x08012664
 .igot.plt      0x00000000        0x0 ..\obj\socket.o

.bss            0x20000c00     0x7cbc load address 0x08012668
                0x20000c00                . = ALIGN (0x4)
                0x20000c00                __bss_start__ = .
                0x20000c00                _sbss = __bss_start__
 *(.bss*)
 .bss           0x20000c00        0x3 ..\obj\core.o
                0x20000c00                OSIntNesting
                0x20000c01                OSSchedLock
                0x20000c02                TaskSchedReq
 *fill*         0x20000c03        0x1 00
 .bss           0x20000c04       0x40 ..\obj\interrupts.o
                0x20000c04                A_wert
                0x20000c06                B_wert
                0x20000c08                start_wert
                0x20000c0a                end_wert
                0x20000c0c                messung_der_periodendauer
                0x20000c10                differenz_wert
                0x20000c14                timer
                0x20000c18                Tas1
                0x20000c1c                Tas2
                0x20000c20                T1
                0x20000c22                T2
                0x20000c24                frequenz
                0x20000c28                periodendauer
                0x20000c2c                j
                0x20000c2e                taster1_pressed_count
                0x20000c2f                taster2_pressed_count
                0x20000c30                usart2_in_length
 *fill*         0x20000c44        0x4 00
 .bss           0x20000c48      0x208 ..\obj\task.o
                0x20000c48                TCBTbl
                0x20000d50                idle_stk
                0x20000e38                FreeTCB
                0x20000e3c                TCBRdy
                0x20000e40                TCBNext
                0x20000e44                TCBRunning
                0x20000e48                OSCheckTime
 .bss           0x20000e50        0x4 ..\obj\syscalls.o
 .bss           0x20000e54       0x38 ..\obj\CC3000.o
                0x20000e54                CC3000_DHCP_done
                0x20000e55                CC3000_is_Connected
                0x20000e56                CC3000_is_ON
                0x20000e57                CC3000_SmartConfig_active
                0x20000e58                CC3000_SmartConfig_finished
                0x20000e59                CC3000_SmartConfig_stop
                0x20000e5c                CC3000_SOCKET_WAIT_DISCONNECT
                0x20000e60                check
                0x20000e64                ipConfig
                0x20000e78                S3_WaitForAnswer
                0x20000e79                S4_WaitForAnswer
                0x20000e7a                S_ClientConnected
                0x20000e7b                flag
                0x20000e7c                frx
                0x20000e80                trx
                0x20000e84                smtpServerIP
                0x20000e88                wlanStatus
 .bss.__malloc_max_total_mem
                0x20000e8c        0x4 c:/program files/gnu tools arm embedded/4.7 2014q2/bin/../lib/gcc/arm-none-eabi/4.7.4/../../../../arm-none-eabi/lib/armv7e-m/fpu\libg.a(lib_a-mallocr.o)
                0x20000e8c                __malloc_max_total_mem
 .bss.__malloc_max_sbrked_mem
                0x20000e90        0x4 c:/program files/gnu tools arm embedded/4.7 2014q2/bin/../lib/gcc/arm-none-eabi/4.7.4/../../../../arm-none-eabi/lib/armv7e-m/fpu\libg.a(lib_a-mallocr.o)
                0x20000e90                __malloc_max_sbrked_mem
 .bss.__malloc_top_pad
                0x20000e94        0x4 c:/program files/gnu tools arm embedded/4.7 2014q2/bin/../lib/gcc/arm-none-eabi/4.7.4/../../../../arm-none-eabi/lib/armv7e-m/fpu\libg.a(lib_a-mallocr.o)
                0x20000e94                __malloc_top_pad
 .bss.__malloc_current_mallinfo
                0x20000e98       0x28 c:/program files/gnu tools arm embedded/4.7 2014q2/bin/../lib/gcc/arm-none-eabi/4.7.4/../../../../arm-none-eabi/lib/armv7e-m/fpu\libg.a(lib_a-mallocr.o)
                0x20000e98                __malloc_current_mallinfo
 *(COMMON)
 COMMON         0x20000ec0      0x4ec ..\obj\socket.o
                0x20000ec0                average_value_index
                0x20000ec4                state_red_other
                0x20000ec8                sinus_dau
                0x20000f90                echo_socket_handle
                0x20000f94                color_toggle
                0x20000f98                aufgabe_11_aktiv
                0x20000f9c                timer_counter
                0x20000fa0                state_green_local
                0x20000fa4                aufgabe_7_aktiv
                0x20000fa8                target_id
                0x20000fac                setting_time
                0x20000fb0                source_id
                0x20000fb4                usart2_tx_buffer
                0x20000fe8                usart2_rx_buffer
                0x2000101c                send_buffer
                0x20001020                aufgabe_6_aktiv
                0x20001024                aufgabe_5_aktiv
                0x20001028                state_red_local
                0x2000102c                sinus_x_pos
                0x20001030                average_values
                0x200011c0                average_window_width
                0x200011c4                next_send_command
                0x200011c8                Buffer
                0x200011fc                aufgabe_12_aktiv
                0x20001200                set_ntp_time
                0x20001204                aufgabe_2_aktiv
                0x20001208                aufgabe_8_aktiv
                0x2000120c                aufgabe_10_aktiv
                0x20001210                state_green_other
                0x20001214                senderIP
                0x2000121c                sinus_voltage
 COMMON         0x200013ac      0xbf4 ..\obj\spi.o
                0x200013ac                sSpiInformation
                0x200013c0                wlan_tx_buffer
                0x200019b0                wlan_rx_buffer
 COMMON         0x20001fa0      0x4c2 ..\obj\interrupts.o
                0x20001fa0                bufi
                0x20001fc8                string_out
                0x20001ffc                dma_print_buffer
                0x200023fc                string_in
                0x20002430                tasten
 *fill*         0x20002462        0x2 00
 COMMON         0x20002464       0x68 ..\obj\rtc.o
                0x20002464                RTC_Init_Struct
                0x20002470                ntp_sync_stop_Date
                0x20002474                ntp_sync_stop_Time
                0x20002478                ntp_sync_startTime
                0x2000247c                RTC_Alarm_Struct
                0x2000248c                RTC_Time_Aktuell
                0x20002490                RTC_Time_Struct
                0x20002494                RTC_Date_Struct
                0x20002498                RTC_InitStructure
                0x200024a4                NVIC_InitStruct
                0x200024a8                RTC_Alarm_Aktuell
                0x200024b8                ntp_sync_startDate
                0x200024bc                EXTI_InitStruct
                0x200024c4                RTC_TimeStructure
                0x200024c8                RTC_Date_Aktuell
 COMMON         0x200024cc       0x98 ..\obj\wlan.o
                0x200024cc                profileArray
                0x20002510                tSLInformation
                0x20002554                key
 COMMON         0x20002564       0x82 ..\obj\CC1101.o
                0x20002564                TxCC1100
                0x200025a4                RxCC1100
 *fill*         0x200025e6        0x2 00
 COMMON         0x200025e8     0x61d0 ..\obj\CC3000.o
                0x200025e8                exceptsds
                0x200025ec                S_ConnectedClient
                0x200025fc                rx_daten
                0x20002dfc                tx_daten
                0x200035fc                my_IP
                0x2000360c                socket_Handles
                0x2000361c                udp_socket
                0x20003620                from
                0x20003660                readds
                0x20003664                apProfiles
                0x20003894                tcp_socket
                0x20003898                strScanresults
                0x200038cc                sockets
                0x2000390c                tSocketAddr
                0x2000391c                profile
                0x20003984                rx_buf
                0x20005984                timeout
                0x2000598c                write_cbs
                0x2000599c                tx_buf
                0x2000799c                read_cbs
                0x200079ac                socket_Type
                0x200079b4                except_cbs
                0x200079c4                visibleNetworks
                0x20007eec                buffer_out
                0x200082ec                writeds
                0x200082f0                cc3000_out
 COMMON         0x200087b8        0x4 c:/program files/gnu tools arm embedded/4.7 2014q2/bin/../lib/gcc/arm-none-eabi/4.7.4/../../../../arm-none-eabi/lib/armv7e-m/fpu\libg.a(lib_a-reent.o)
                0x200087b8                errno
 COMMON         0x200087bc      0x100 c:/program files/gnu tools arm embedded/4.7 2014q2/bin/../lib/gcc/arm-none-eabi/4.7.4/../../../../arm-none-eabi/lib/armv7e-m/fpu\libg.a(lib_a-gdtoa-gethex.o)
                0x200087bc                __hexdig
                0x200088bc                . = ALIGN (0x4)
                0x200088bc                __bss_end__ = .
                0x200088bc                _ebss = __bss_end__

.heap           0x200088bc        0x0
                0x200088bc                __end__ = .
                0x200088bc                _end = __end__
                0x200088bc                end = __end__
 *(.heap*)
                0x200088bc                __HeapLimit = .

.co_stack       0x200088bc     0x1004 load address 0x0801a324
                0x200088c0                . = ALIGN (0x8)
 *fill*         0x200088bc        0x4 00
 *(.co_stack .co_stack.*)
 .co_stack      0x200088c0     0x1000 ..\obj\startup_stm32f4xx.o
                0x200088c0                pulStack
                0x20020000                __StackTop = (ORIGIN (ram) + 0x20000)
                0x2001effc                __StackLimit = (__StackTop - SIZEOF (.co_stack))
                0x20020000                PROVIDE (__stack, __StackTop)
                0x00000001                ASSERT ((__StackLimit >= __HeapLimit), region ram  overflowed with stack)
LOAD ..\obj\socket.o
LOAD ..\obj\aufgabe3.o
LOAD ..\obj\stm32f4xx_syscfg.o
LOAD ..\obj\aufgabe4.o
LOAD ..\obj\spi.o
LOAD ..\obj\kernelHeap.o
LOAD ..\obj\hci.o
LOAD ..\obj\stm32f4xx_sdio.o
LOAD ..\obj\i2c.o
LOAD ..\obj\aufgabe5.o
LOAD ..\obj\netapp.o
LOAD ..\obj\core.o
LOAD ..\obj\stm32f4xx_cryp_aes.o
LOAD ..\obj\stm32f4xx_hash.o
LOAD ..\obj\interrupts.o
LOAD ..\obj\stm32f4xx_hash_sha1.o
LOAD ..\obj\aufgabe6.o
LOAD ..\obj\timer.o
LOAD ..\obj\utility.o
LOAD ..\obj\os.o
LOAD ..\obj\stm32f4xx_usart.o
LOAD ..\obj\aufgabe7.o
LOAD ..\obj\stm32f4xx_pwr.o
LOAD ..\obj\rtc.o
LOAD ..\obj\stm32f4xx_can.o
LOAD ..\obj\cc3000_common.o
LOAD ..\obj\led.o
LOAD ..\obj\aufgabe8.o
LOAD ..\obj\stm32f4xx_wwdg.o
LOAD ..\obj\stm32f4xx_hash_md5.o
LOAD ..\obj\stm32f4xx_dac.o
LOAD ..\obj\aufgabe9.o
LOAD ..\obj\task.o
LOAD ..\obj\startup_stm32f4xx.o
LOAD ..\obj\serviceReq.o
LOAD ..\obj\patch.o
LOAD ..\obj\stm32f4xx_crc.o
LOAD ..\obj\stm32f4xx_iwdg.o
LOAD ..\obj\main.o
LOAD ..\obj\stm32f4xx_rcc.o
LOAD ..\obj\aufgabe10.o
LOAD ..\obj\init.o
LOAD ..\obj\aufgabe11.o
LOAD ..\obj\stm32f4xx_adc.o
LOAD ..\obj\wlan.o
LOAD ..\obj\stm32f4xx_dcmi.o
LOAD ..\obj\aufgabe12.o
LOAD ..\obj\mbox.o
LOAD ..\obj\mm.o
LOAD ..\obj\security.o
LOAD ..\obj\CC1101.o
LOAD ..\obj\stm32f4xx_cryp_des.o
LOAD ..\obj\stm32f4xx_cryp.o
LOAD ..\obj\stm32f4xx_fsmc.o
LOAD ..\obj\time.o
LOAD ..\obj\event.o
LOAD ..\obj\stm32f4xx_gpio.o
LOAD ..\obj\stm32f4xx_flash.o
LOAD ..\obj\system_stm32f4xx.o
LOAD ..\obj\syscalls.o
LOAD ..\obj\stm32f4xx_dma.o
LOAD ..\obj\queue.o
LOAD ..\obj\port.o
LOAD ..\obj\CC3000.o
LOAD ..\obj\mutex.o
LOAD ..\obj\flag.o
LOAD ..\obj\nvmem.o
LOAD ..\obj\ntp.o
LOAD ..\obj\evnt_handler.o
LOAD ..\obj\stm32f4xx_spi.o
LOAD ..\obj\stm32f4xx_i2c.o
LOAD ..\obj\cc3000_hal.o
LOAD ..\obj\arch.o
LOAD ..\obj\stm32f4xx_rng.o
LOAD ..\obj\stm32f4xx_exti.o
LOAD ..\obj\misc.o
LOAD ..\obj\TCA6416.o
LOAD ..\obj\sem.o
LOAD ..\obj\stm32f4xx_rtc.o
LOAD ..\obj\aufgabe1.o
LOAD ..\obj\hook.o
LOAD ..\obj\stm32f4xx_cryp_tdes.o
LOAD ..\obj\stm32f4xx_tim.o
LOAD ..\obj\aufgabe2.o
LOAD ..\obj\stm32f4xx_dbgmcu.o
LOAD ..\obj\usart.o
LOAD c:/program files/gnu tools arm embedded/4.7 2014q2/bin/../lib/gcc/arm-none-eabi/4.7.4/../../../../arm-none-eabi/lib/armv7e-m/fpu\libm.a
START GROUP
LOAD c:/program files/gnu tools arm embedded/4.7 2014q2/bin/../lib/gcc/arm-none-eabi/4.7.4/armv7e-m/fpu\libgcc.a
LOAD c:/program files/gnu tools arm embedded/4.7 2014q2/bin/../lib/gcc/arm-none-eabi/4.7.4/../../../../arm-none-eabi/lib/armv7e-m/fpu\libg.a
LOAD c:/program files/gnu tools arm embedded/4.7 2014q2/bin/../lib/gcc/arm-none-eabi/4.7.4/../../../../arm-none-eabi/lib/armv7e-m/fpu\libc.a
END GROUP
OUTPUT(STM32F415RG.elf elf32-littlearm)

.debug_info     0x00000000    0x1a33a
 .debug_info    0x00000000     0x113f ..\obj\socket.o
 .debug_info    0x0000113f      0x279 ..\obj\stm32f4xx_syscfg.o
 .debug_info    0x000013b8      0x5a2 ..\obj\aufgabe4.o
 .debug_info    0x0000195a     0x126d ..\obj\spi.o
 .debug_info    0x00002bc7      0x54b ..\obj\hci.o
 .debug_info    0x00003112      0xa1f ..\obj\aufgabe5.o
 .debug_info    0x00003b31      0x320 ..\obj\core.o
 .debug_info    0x00003e51      0xf37 ..\obj\interrupts.o
 .debug_info    0x00004d88      0xf11 ..\obj\aufgabe6.o
 .debug_info    0x00005c99      0xa65 ..\obj\stm32f4xx_usart.o
 .debug_info    0x000066fe      0x543 ..\obj\stm32f4xx_pwr.o
 .debug_info    0x00006c41      0xef6 ..\obj\rtc.o
 .debug_info    0x00007b37      0x4a5 ..\obj\cc3000_common.o
 .debug_info    0x00007fdc      0xeb1 ..\obj\aufgabe8.o
 .debug_info    0x00008e8d      0x257 ..\obj\stm32f4xx_wwdg.o
 .debug_info    0x000090e4      0x68d ..\obj\stm32f4xx_dac.o
 .debug_info    0x00009771      0x631 ..\obj\aufgabe9.o
 .debug_info    0x00009da2      0x760 ..\obj\task.o
 .debug_info    0x0000a502      0x103 ..\obj\startup_stm32f4xx.o
 .debug_info    0x0000a605      0x398 ..\obj\main.o
 .debug_info    0x0000a99d      0xd49 ..\obj\stm32f4xx_rcc.o
 .debug_info    0x0000b6e6      0x4fc ..\obj\aufgabe10.o
 .debug_info    0x0000bbe2      0xa07 ..\obj\init.o
 .debug_info    0x0000c5e9      0xedd ..\obj\aufgabe11.o
 .debug_info    0x0000d4c6      0xd14 ..\obj\stm32f4xx_adc.o
 .debug_info    0x0000e1da      0xf0b ..\obj\wlan.o
 .debug_info    0x0000f0e5     0x12c4 ..\obj\aufgabe12.o
 .debug_info    0x000103a9     0x1165 ..\obj\CC1101.o
 .debug_info    0x0001150e      0x640 ..\obj\stm32f4xx_gpio.o
 .debug_info    0x00011b4e      0x5f5 ..\obj\system_stm32f4xx.o
 .debug_info    0x00012143      0x443 ..\obj\syscalls.o
 .debug_info    0x00012586      0x7af ..\obj\stm32f4xx_dma.o
 .debug_info    0x00012d35      0x1be ..\obj\port.o
 .debug_info    0x00012ef3     0x1782 ..\obj\CC3000.o
 .debug_info    0x00014675      0xba1 ..\obj\evnt_handler.o
 .debug_info    0x00015216      0xbde ..\obj\stm32f4xx_spi.o
 .debug_info    0x00015df4      0x373 ..\obj\stm32f4xx_exti.o
 .debug_info    0x00016167      0x592 ..\obj\misc.o
 .debug_info    0x000166f9     0x1255 ..\obj\stm32f4xx_rtc.o
 .debug_info    0x0001794e     0x1e7d ..\obj\stm32f4xx_tim.o
 .debug_info    0x000197cb      0xb6f ..\obj\usart.o

.debug_abbrev   0x00000000     0x4334
 .debug_abbrev  0x00000000      0x1bb ..\obj\socket.o
 .debug_abbrev  0x000001bb      0x133 ..\obj\stm32f4xx_syscfg.o
 .debug_abbrev  0x000002ee      0x17b ..\obj\aufgabe4.o
 .debug_abbrev  0x00000469      0x2d3 ..\obj\spi.o
 .debug_abbrev  0x0000073c       0xf6 ..\obj\hci.o
 .debug_abbrev  0x00000832      0x19d ..\obj\aufgabe5.o
 .debug_abbrev  0x000009cf       0xf7 ..\obj\core.o
 .debug_abbrev  0x00000ac6      0x28e ..\obj\interrupts.o
 .debug_abbrev  0x00000d54      0x214 ..\obj\aufgabe6.o
 .debug_abbrev  0x00000f68      0x157 ..\obj\stm32f4xx_usart.o
 .debug_abbrev  0x000010bf      0x181 ..\obj\stm32f4xx_pwr.o
 .debug_abbrev  0x00001240      0x24a ..\obj\rtc.o
 .debug_abbrev  0x0000148a       0xef ..\obj\cc3000_common.o
 .debug_abbrev  0x00001579      0x267 ..\obj\aufgabe8.o
 .debug_abbrev  0x000017e0      0x142 ..\obj\stm32f4xx_wwdg.o
 .debug_abbrev  0x00001922      0x17e ..\obj\stm32f4xx_dac.o
 .debug_abbrev  0x00001aa0      0x169 ..\obj\aufgabe9.o
 .debug_abbrev  0x00001c09      0x1f1 ..\obj\task.o
 .debug_abbrev  0x00001dfa       0xb2 ..\obj\startup_stm32f4xx.o
 .debug_abbrev  0x00001eac       0xac ..\obj\main.o
 .debug_abbrev  0x00001f58      0x1e5 ..\obj\stm32f4xx_rcc.o
 .debug_abbrev  0x0000213d      0x18b ..\obj\aufgabe10.o
 .debug_abbrev  0x000022c8      0x1aa ..\obj\init.o
 .debug_abbrev  0x00002472      0x1c4 ..\obj\aufgabe11.o
 .debug_abbrev  0x00002636      0x198 ..\obj\stm32f4xx_adc.o
 .debug_abbrev  0x000027ce      0x1fe ..\obj\wlan.o
 .debug_abbrev  0x000029cc      0x2b5 ..\obj\aufgabe12.o
 .debug_abbrev  0x00002c81      0x2bb ..\obj\CC1101.o
 .debug_abbrev  0x00002f3c      0x1a5 ..\obj\stm32f4xx_gpio.o
 .debug_abbrev  0x000030e1      0x138 ..\obj\system_stm32f4xx.o
 .debug_abbrev  0x00003219       0xe4 ..\obj\syscalls.o
 .debug_abbrev  0x000032fd      0x157 ..\obj\stm32f4xx_dma.o
 .debug_abbrev  0x00003454      0x101 ..\obj\port.o
 .debug_abbrev  0x00003555      0x289 ..\obj\CC3000.o
 .debug_abbrev  0x000037de      0x22d ..\obj\evnt_handler.o
 .debug_abbrev  0x00003a0b      0x169 ..\obj\stm32f4xx_spi.o
 .debug_abbrev  0x00003b74      0x1a7 ..\obj\stm32f4xx_exti.o
 .debug_abbrev  0x00003d1b      0x129 ..\obj\misc.o
 .debug_abbrev  0x00003e44      0x1b0 ..\obj\stm32f4xx_rtc.o
 .debug_abbrev  0x00003ff4      0x189 ..\obj\stm32f4xx_tim.o
 .debug_abbrev  0x0000417d      0x1b7 ..\obj\usart.o

.debug_loc      0x00000000     0x9226
 .debug_loc     0x00000000      0x3f4 ..\obj\socket.o
 .debug_loc     0x000003f4      0x144 ..\obj\stm32f4xx_syscfg.o
 .debug_loc     0x00000538      0x1b4 ..\obj\aufgabe4.o
 .debug_loc     0x000006ec      0x3ec ..\obj\spi.o
 .debug_loc     0x00000ad8       0xe0 ..\obj\hci.o
 .debug_loc     0x00000bb8      0x34c ..\obj\aufgabe5.o
 .debug_loc     0x00000f04      0x160 ..\obj\core.o
 .debug_loc     0x00001064      0x564 ..\obj\interrupts.o
 .debug_loc     0x000015c8      0x2ab ..\obj\aufgabe6.o
 .debug_loc     0x00001873      0x658 ..\obj\stm32f4xx_usart.o
 .debug_loc     0x00001ecb      0x288 ..\obj\stm32f4xx_pwr.o
 .debug_loc     0x00002153      0x3a8 ..\obj\rtc.o
 .debug_loc     0x000024fb      0x118 ..\obj\cc3000_common.o
 .debug_loc     0x00002613      0x46c ..\obj\aufgabe8.o
 .debug_loc     0x00002a7f      0x19c ..\obj\stm32f4xx_wwdg.o
 .debug_loc     0x00002c1b      0x3ac ..\obj\stm32f4xx_dac.o
 .debug_loc     0x00002fc7       0xe2 ..\obj\aufgabe9.o
 .debug_loc     0x000030a9      0x288 ..\obj\task.o
 .debug_loc     0x00003331       0x64 ..\obj\startup_stm32f4xx.o
 .debug_loc     0x00003395       0x2c ..\obj\main.o
 .debug_loc     0x000033c1      0x97c ..\obj\stm32f4xx_rcc.o
 .debug_loc     0x00003d3d      0x170 ..\obj\aufgabe10.o
 .debug_loc     0x00003ead      0x100 ..\obj\init.o
 .debug_loc     0x00003fad      0x148 ..\obj\aufgabe11.o
 .debug_loc     0x000040f5      0x838 ..\obj\stm32f4xx_adc.o
 .debug_loc     0x0000492d      0x3e6 ..\obj\wlan.o
 .debug_loc     0x00004d13      0x36f ..\obj\aufgabe12.o
 .debug_loc     0x00005082      0x4ce ..\obj\CC1101.o
 .debug_loc     0x00005550      0x310 ..\obj\stm32f4xx_gpio.o
 .debug_loc     0x00005860       0x9c ..\obj\system_stm32f4xx.o
 .debug_loc     0x000058fc      0x1ec ..\obj\syscalls.o
 .debug_loc     0x00005ae8      0x428 ..\obj\stm32f4xx_dma.o
 .debug_loc     0x00005f10       0xc8 ..\obj\port.o
 .debug_loc     0x00005fd8      0x51c ..\obj\CC3000.o
 .debug_loc     0x000064f4      0x234 ..\obj\evnt_handler.o
 .debug_loc     0x00006728      0x578 ..\obj\stm32f4xx_spi.o
 .debug_loc     0x00006ca0      0x1b4 ..\obj\stm32f4xx_exti.o
 .debug_loc     0x00006e54      0x118 ..\obj\misc.o
 .debug_loc     0x00006f6c      0xc48 ..\obj\stm32f4xx_rtc.o
 .debug_loc     0x00007bb4     0x1420 ..\obj\stm32f4xx_tim.o
 .debug_loc     0x00008fd4      0x252 ..\obj\usart.o

.debug_aranges  0x00000000     0x1968
 .debug_aranges
                0x00000000       0xa8 ..\obj\socket.o
 .debug_aranges
                0x000000a8       0x48 ..\obj\stm32f4xx_syscfg.o
 .debug_aranges
                0x000000f0       0x58 ..\obj\aufgabe4.o
 .debug_aranges
                0x00000148       0xb0 ..\obj\spi.o
 .debug_aranges
                0x000001f8       0x38 ..\obj\hci.o
 .debug_aranges
                0x00000230       0xa0 ..\obj\aufgabe5.o
 .debug_aranges
                0x000002d0       0x58 ..\obj\core.o
 .debug_aranges
                0x00000328      0x108 ..\obj\interrupts.o
 .debug_aranges
                0x00000430       0x78 ..\obj\aufgabe6.o
 .debug_aranges
                0x000004a8      0x100 ..\obj\stm32f4xx_usart.o
 .debug_aranges
                0x000005a8       0x78 ..\obj\stm32f4xx_pwr.o
 .debug_aranges
                0x00000620       0xa0 ..\obj\rtc.o
 .debug_aranges
                0x000006c0       0x40 ..\obj\cc3000_common.o
 .debug_aranges
                0x00000700       0xc0 ..\obj\aufgabe8.o
 .debug_aranges
                0x000007c0       0x58 ..\obj\stm32f4xx_wwdg.o
 .debug_aranges
                0x00000818       0xa0 ..\obj\stm32f4xx_dac.o
 .debug_aranges
                0x000008b8       0x38 ..\obj\aufgabe9.o
 .debug_aranges
                0x000008f0       0x78 ..\obj\task.o
 .debug_aranges
                0x00000968       0x28 ..\obj\startup_stm32f4xx.o
 .debug_aranges
                0x00000990       0x20 ..\obj\main.o
 .debug_aranges
                0x000009b0      0x178 ..\obj\stm32f4xx_rcc.o
 .debug_aranges
                0x00000b28       0x50 ..\obj\aufgabe10.o
 .debug_aranges
                0x00000b78       0x40 ..\obj\init.o
 .debug_aranges
                0x00000bb8       0x48 ..\obj\aufgabe11.o
 .debug_aranges
                0x00000c00      0x148 ..\obj\stm32f4xx_adc.o
 .debug_aranges
                0x00000d48       0xa8 ..\obj\wlan.o
 .debug_aranges
                0x00000df0       0x98 ..\obj\aufgabe12.o
 .debug_aranges
                0x00000e88       0xd0 ..\obj\CC1101.o
 .debug_aranges
                0x00000f58       0x88 ..\obj\stm32f4xx_gpio.o
 .debug_aranges
                0x00000fe0       0x30 ..\obj\system_stm32f4xx.o
 .debug_aranges
                0x00001010       0x60 ..\obj\syscalls.o
 .debug_aranges
                0x00001070       0xb0 ..\obj\stm32f4xx_dma.o
 .debug_aranges
                0x00001120       0x50 ..\obj\port.o
 .debug_aranges
                0x00001170       0xd0 ..\obj\CC3000.o
 .debug_aranges
                0x00001240       0x68 ..\obj\evnt_handler.o
 .debug_aranges
                0x000012a8       0xe0 ..\obj\stm32f4xx_spi.o
 .debug_aranges
                0x00001388       0x58 ..\obj\stm32f4xx_exti.o
 .debug_aranges
                0x000013e0       0x40 ..\obj\misc.o
 .debug_aranges
                0x00001420      0x1e0 ..\obj\stm32f4xx_rtc.o
 .debug_aranges
                0x00001600      0x2f8 ..\obj\stm32f4xx_tim.o
 .debug_aranges
                0x000018f8       0x70 ..\obj\usart.o

.debug_ranges   0x00000000     0x1790
 .debug_ranges  0x00000000       0x98 ..\obj\socket.o
 .debug_ranges  0x00000098       0x38 ..\obj\stm32f4xx_syscfg.o
 .debug_ranges  0x000000d0       0x88 ..\obj\aufgabe4.o
 .debug_ranges  0x00000158       0xa0 ..\obj\spi.o
 .debug_ranges  0x000001f8       0x28 ..\obj\hci.o
 .debug_ranges  0x00000220       0x90 ..\obj\aufgabe5.o
 .debug_ranges  0x000002b0       0x48 ..\obj\core.o
 .debug_ranges  0x000002f8       0xf8 ..\obj\interrupts.o
 .debug_ranges  0x000003f0       0x68 ..\obj\aufgabe6.o
 .debug_ranges  0x00000458       0xf0 ..\obj\stm32f4xx_usart.o
 .debug_ranges  0x00000548       0x68 ..\obj\stm32f4xx_pwr.o
 .debug_ranges  0x000005b0       0x90 ..\obj\rtc.o
 .debug_ranges  0x00000640       0x30 ..\obj\cc3000_common.o
 .debug_ranges  0x00000670       0xf8 ..\obj\aufgabe8.o
 .debug_ranges  0x00000768       0x48 ..\obj\stm32f4xx_wwdg.o
 .debug_ranges  0x000007b0       0x90 ..\obj\stm32f4xx_dac.o
 .debug_ranges  0x00000840       0x28 ..\obj\aufgabe9.o
 .debug_ranges  0x00000868       0x68 ..\obj\task.o
 .debug_ranges  0x000008d0       0x18 ..\obj\startup_stm32f4xx.o
 .debug_ranges  0x000008e8       0x10 ..\obj\main.o
 .debug_ranges  0x000008f8      0x168 ..\obj\stm32f4xx_rcc.o
 .debug_ranges  0x00000a60       0x40 ..\obj\aufgabe10.o
 .debug_ranges  0x00000aa0       0x30 ..\obj\init.o
 .debug_ranges  0x00000ad0       0x38 ..\obj\aufgabe11.o
 .debug_ranges  0x00000b08      0x138 ..\obj\stm32f4xx_adc.o
 .debug_ranges  0x00000c40       0x98 ..\obj\wlan.o
 .debug_ranges  0x00000cd8       0xb8 ..\obj\aufgabe12.o
 .debug_ranges  0x00000d90       0xc0 ..\obj\CC1101.o
 .debug_ranges  0x00000e50       0x78 ..\obj\stm32f4xx_gpio.o
 .debug_ranges  0x00000ec8       0x20 ..\obj\system_stm32f4xx.o
 .debug_ranges  0x00000ee8       0x50 ..\obj\syscalls.o
 .debug_ranges  0x00000f38       0xa0 ..\obj\stm32f4xx_dma.o
 .debug_ranges  0x00000fd8       0x40 ..\obj\port.o
 .debug_ranges  0x00001018       0xc0 ..\obj\CC3000.o
 .debug_ranges  0x000010d8       0x58 ..\obj\evnt_handler.o
 .debug_ranges  0x00001130       0xd0 ..\obj\stm32f4xx_spi.o
 .debug_ranges  0x00001200       0x48 ..\obj\stm32f4xx_exti.o
 .debug_ranges  0x00001248       0x30 ..\obj\misc.o
 .debug_ranges  0x00001278      0x1d0 ..\obj\stm32f4xx_rtc.o
 .debug_ranges  0x00001448      0x2e8 ..\obj\stm32f4xx_tim.o
 .debug_ranges  0x00001730       0x60 ..\obj\usart.o

.debug_line     0x00000000     0x99ac
 .debug_line    0x00000000      0x4d1 ..\obj\socket.o
 .debug_line    0x000004d1      0x1d9 ..\obj\stm32f4xx_syscfg.o
 .debug_line    0x000006aa      0x2d0 ..\obj\aufgabe4.o
 .debug_line    0x0000097a      0x576 ..\obj\spi.o
 .debug_line    0x00000ef0      0x277 ..\obj\hci.o
 .debug_line    0x00001167      0x366 ..\obj\aufgabe5.o
 .debug_line    0x000014cd      0x125 ..\obj\core.o
 .debug_line    0x000015f2      0x5a7 ..\obj\interrupts.o
 .debug_line    0x00001b99      0x4bc ..\obj\aufgabe6.o
 .debug_line    0x00002055      0x461 ..\obj\stm32f4xx_usart.o
 .debug_line    0x000024b6      0x276 ..\obj\stm32f4xx_pwr.o
 .debug_line    0x0000272c      0x55a ..\obj\rtc.o
 .debug_line    0x00002c86      0x26e ..\obj\cc3000_common.o
 .debug_line    0x00002ef4      0x4c2 ..\obj\aufgabe8.o
 .debug_line    0x000033b6      0x1fb ..\obj\stm32f4xx_wwdg.o
 .debug_line    0x000035b1      0x31d ..\obj\stm32f4xx_dac.o
 .debug_line    0x000038ce      0x2b7 ..\obj\aufgabe9.o
 .debug_line    0x00003b85      0x2ee ..\obj\task.o
 .debug_line    0x00003e73       0x9e ..\obj\startup_stm32f4xx.o
 .debug_line    0x00003f11      0x212 ..\obj\main.o
 .debug_line    0x00004123      0x558 ..\obj\stm32f4xx_rcc.o
 .debug_line    0x0000467b      0x27b ..\obj\aufgabe10.o
 .debug_line    0x000048f6      0x2c8 ..\obj\init.o
 .debug_line    0x00004bbe      0x2f2 ..\obj\aufgabe11.o
 .debug_line    0x00004eb0      0x511 ..\obj\stm32f4xx_adc.o
 .debug_line    0x000053c1      0x524 ..\obj\wlan.o
 .debug_line    0x000058e5      0x5f2 ..\obj\aufgabe12.o
 .debug_line    0x00005ed7      0x614 ..\obj\CC1101.o
 .debug_line    0x000064eb      0x2fc ..\obj\stm32f4xx_gpio.o
 .debug_line    0x000067e7      0x1ba ..\obj\system_stm32f4xx.o
 .debug_line    0x000069a1      0x19f ..\obj\syscalls.o
 .debug_line    0x00006b40      0x399 ..\obj\stm32f4xx_dma.o
 .debug_line    0x00006ed9      0x123 ..\obj\port.o
 .debug_line    0x00006ffc      0x75e ..\obj\CC3000.o
 .debug_line    0x0000775a      0x4a2 ..\obj\evnt_handler.o
 .debug_line    0x00007bfc      0x410 ..\obj\stm32f4xx_spi.o
 .debug_line    0x0000800c      0x262 ..\obj\stm32f4xx_exti.o
 .debug_line    0x0000826e      0x202 ..\obj\misc.o
 .debug_line    0x00008470      0x7cd ..\obj\stm32f4xx_rtc.o
 .debug_line    0x00008c3d      0xa36 ..\obj\stm32f4xx_tim.o
 .debug_line    0x00009673      0x339 ..\obj\usart.o

.debug_str      0x00000000     0x7597
 .debug_str     0x00000000      0x87e ..\obj\socket.o
                                0x974 (size before relaxing)
 .debug_str     0x0000087e      0x1a2 ..\obj\stm32f4xx_syscfg.o
                                0x29e (size before relaxing)
 .debug_str     0x00000a20      0x31e ..\obj\aufgabe4.o
                                0x4ad (size before relaxing)
 .debug_str     0x00000d3e      0x9aa ..\obj\spi.o
                                0xff1 (size before relaxing)
 .debug_str     0x000016e8       0xfd ..\obj\hci.o
                                0x450 (size before relaxing)
 .debug_str     0x000017e5      0x1b1 ..\obj\aufgabe5.o
                                0xa72 (size before relaxing)
 .debug_str     0x00001996      0x189 ..\obj\core.o
                                0x250 (size before relaxing)
 .debug_str     0x00001b1f      0x472 ..\obj\interrupts.o
                                0x91b (size before relaxing)
 .debug_str     0x00001f91      0x258 ..\obj\aufgabe6.o
                                0xd38 (size before relaxing)
 .debug_str     0x000021e9      0x406 ..\obj\stm32f4xx_usart.o
                                0x62e (size before relaxing)
 .debug_str     0x000025ef      0x1d7 ..\obj\stm32f4xx_pwr.o
                                0x330 (size before relaxing)
 .debug_str     0x000027c6      0x346 ..\obj\rtc.o
                                0xe4b (size before relaxing)
 .debug_str     0x00002b0c       0xa7 ..\obj\cc3000_common.o
                                0x3f8 (size before relaxing)
 .debug_str     0x00002bb3      0x3c4 ..\obj\aufgabe8.o
                                0xd96 (size before relaxing)
 .debug_str     0x00002f77       0xd3 ..\obj\stm32f4xx_wwdg.o
                                0x221 (size before relaxing)
 .debug_str     0x0000304a      0x297 ..\obj\stm32f4xx_dac.o
                                0x3f2 (size before relaxing)
 .debug_str     0x000032e1      0x18e ..\obj\aufgabe9.o
                                0x553 (size before relaxing)
 .debug_str     0x0000346f      0x22e ..\obj\task.o
                                0x3ef (size before relaxing)
 .debug_str     0x0000369d       0xac ..\obj\startup_stm32f4xx.o
                                0x110 (size before relaxing)
 .debug_str     0x00003749       0x2b ..\obj\main.o
                                0x37a (size before relaxing)
 .debug_str     0x00003774      0x5d1 ..\obj\stm32f4xx_rcc.o
                                0x7ef (size before relaxing)
 .debug_str     0x00003d45       0xd1 ..\obj\aufgabe10.o
                                0x4e3 (size before relaxing)
 .debug_str     0x00003e16       0xbb ..\obj\init.o
                                0x9e7 (size before relaxing)
 .debug_str     0x00003ed1      0x19c ..\obj\aufgabe11.o
                                0xdbf (size before relaxing)
 .debug_str     0x0000406d      0x4d6 ..\obj\stm32f4xx_adc.o
                                0x7a3 (size before relaxing)
 .debug_str     0x00004543      0x425 ..\obj\wlan.o
                                0x994 (size before relaxing)
 .debug_str     0x00004968      0x25b ..\obj\aufgabe12.o
                                0xd87 (size before relaxing)
 .debug_str     0x00004bc3      0x2a6 ..\obj\CC1101.o
                                0xeec (size before relaxing)
 .debug_str     0x00004e69      0x194 ..\obj\stm32f4xx_gpio.o
                                0x442 (size before relaxing)
 .debug_str     0x00004ffd       0xa4 ..\obj\system_stm32f4xx.o
                                0x349 (size before relaxing)
 .debug_str     0x000050a1      0x15c ..\obj\syscalls.o
                                0x2a3 (size before relaxing)
 .debug_str     0x000051fd      0x25d ..\obj\stm32f4xx_dma.o
                                0x4eb (size before relaxing)
 .debug_str     0x0000545a       0xc2 ..\obj\port.o
                                0x190 (size before relaxing)
 .debug_str     0x0000551c      0x649 ..\obj\CC3000.o
                                0xc0e (size before relaxing)
 .debug_str     0x00005b65      0x254 ..\obj\evnt_handler.o
                                0x8c9 (size before relaxing)
 .debug_str     0x00005db9      0x2ec ..\obj\stm32f4xx_spi.o
                                0x629 (size before relaxing)
 .debug_str     0x000060a5       0xec ..\obj\stm32f4xx_exti.o
                                0x30d (size before relaxing)
 .debug_str     0x00006191       0xf8 ..\obj\misc.o
                                0x378 (size before relaxing)
 .debug_str     0x00006289      0x84a ..\obj\stm32f4xx_rtc.o
                                0xaf2 (size before relaxing)
 .debug_str     0x00006ad3      0x9fa ..\obj\stm32f4xx_tim.o
                                0xd6f (size before relaxing)
 .debug_str     0x000074cd       0xca ..\obj\usart.o
                                0xbb7 (size before relaxing)

.comment        0x00000000       0x70
 .comment       0x00000000       0x70 ..\obj\socket.o
                                 0x71 (size before relaxing)
 .comment       0x00000000       0x71 ..\obj\stm32f4xx_syscfg.o
 .comment       0x00000000       0x71 ..\obj\aufgabe4.o
 .comment       0x00000000       0x71 ..\obj\spi.o
 .comment       0x00000000       0x71 ..\obj\hci.o
 .comment       0x00000000       0x71 ..\obj\aufgabe5.o
 .comment       0x00000000       0x71 ..\obj\core.o
 .comment       0x00000000       0x71 ..\obj\interrupts.o
 .comment       0x00000000       0x71 ..\obj\aufgabe6.o
 .comment       0x00000000       0x71 ..\obj\stm32f4xx_usart.o
 .comment       0x00000000       0x71 ..\obj\stm32f4xx_pwr.o
 .comment       0x00000000       0x71 ..\obj\rtc.o
 .comment       0x00000000       0x71 ..\obj\cc3000_common.o
 .comment       0x00000000       0x71 ..\obj\aufgabe8.o
 .comment       0x00000000       0x71 ..\obj\stm32f4xx_wwdg.o
 .comment       0x00000000       0x71 ..\obj\stm32f4xx_dac.o
 .comment       0x00000000       0x71 ..\obj\aufgabe9.o
 .comment       0x00000000       0x71 ..\obj\task.o
 .comment       0x00000000       0x71 ..\obj\startup_stm32f4xx.o
 .comment       0x00000000       0x71 ..\obj\main.o
 .comment       0x00000000       0x71 ..\obj\stm32f4xx_rcc.o
 .comment       0x00000000       0x71 ..\obj\aufgabe10.o
 .comment       0x00000000       0x71 ..\obj\init.o
 .comment       0x00000000       0x71 ..\obj\aufgabe11.o
 .comment       0x00000000       0x71 ..\obj\stm32f4xx_adc.o
 .comment       0x00000000       0x71 ..\obj\wlan.o
 .comment       0x00000000       0x71 ..\obj\aufgabe12.o
 .comment       0x00000000       0x71 ..\obj\CC1101.o
 .comment       0x00000000       0x71 ..\obj\stm32f4xx_gpio.o
 .comment       0x00000000       0x71 ..\obj\system_stm32f4xx.o
 .comment       0x00000000       0x71 ..\obj\syscalls.o
 .comment       0x00000000       0x71 ..\obj\stm32f4xx_dma.o
 .comment       0x00000000       0x71 ..\obj\port.o
 .comment       0x00000000       0x71 ..\obj\CC3000.o
 .comment       0x00000000       0x71 ..\obj\evnt_handler.o
 .comment       0x00000000       0x71 ..\obj\stm32f4xx_spi.o
 .comment       0x00000000       0x71 ..\obj\stm32f4xx_exti.o
 .comment       0x00000000       0x71 ..\obj\misc.o
 .comment       0x00000000       0x71 ..\obj\stm32f4xx_rtc.o
 .comment       0x00000000       0x71 ..\obj\stm32f4xx_tim.o
 .comment       0x00000000       0x71 ..\obj\usart.o

.ARM.attributes
                0x00000000       0x3b
 .ARM.attributes
                0x00000000       0x3b ..\obj\socket.o
 .ARM.attributes
                0x0000003b       0x3b ..\obj\stm32f4xx_syscfg.o
 .ARM.attributes
                0x00000076       0x3b ..\obj\aufgabe4.o
 .ARM.attributes
                0x000000b1       0x3b ..\obj\spi.o
 .ARM.attributes
                0x000000ec       0x3b ..\obj\hci.o
 .ARM.attributes
                0x00000127       0x3b ..\obj\aufgabe5.o
 .ARM.attributes
                0x00000162       0x3b ..\obj\core.o
 .ARM.attributes
                0x0000019d       0x3b ..\obj\interrupts.o
 .ARM.attributes
                0x000001d8       0x3b ..\obj\aufgabe6.o
 .ARM.attributes
                0x00000213       0x3b ..\obj\stm32f4xx_usart.o
 .ARM.attributes
                0x0000024e       0x3b ..\obj\stm32f4xx_pwr.o
 .ARM.attributes
                0x00000289       0x3b ..\obj\rtc.o
 .ARM.attributes
                0x000002c4       0x3b ..\obj\cc3000_common.o
 .ARM.attributes
                0x000002ff       0x3b ..\obj\aufgabe8.o
 .ARM.attributes
                0x0000033a       0x3b ..\obj\stm32f4xx_wwdg.o
 .ARM.attributes
                0x00000375       0x3b ..\obj\stm32f4xx_dac.o
 .ARM.attributes
                0x000003b0       0x3b ..\obj\aufgabe9.o
 .ARM.attributes
                0x000003eb       0x3b ..\obj\task.o
 .ARM.attributes
                0x00000426       0x3b ..\obj\startup_stm32f4xx.o
 .ARM.attributes
                0x00000461       0x3b ..\obj\main.o
 .ARM.attributes
                0x0000049c       0x3b ..\obj\stm32f4xx_rcc.o
 .ARM.attributes
                0x000004d7       0x3b ..\obj\aufgabe10.o
 .ARM.attributes
                0x00000512       0x3b ..\obj\init.o
 .ARM.attributes
                0x0000054d       0x3b ..\obj\aufgabe11.o
 .ARM.attributes
                0x00000588       0x3b ..\obj\stm32f4xx_adc.o
 .ARM.attributes
                0x000005c3       0x3b ..\obj\wlan.o
 .ARM.attributes
                0x000005fe       0x3b ..\obj\aufgabe12.o
 .ARM.attributes
                0x00000639       0x3b ..\obj\CC1101.o
 .ARM.attributes
                0x00000674       0x3b ..\obj\stm32f4xx_gpio.o
 .ARM.attributes
                0x000006af       0x3b ..\obj\system_stm32f4xx.o
 .ARM.attributes
                0x000006ea       0x3b ..\obj\syscalls.o
 .ARM.attributes
                0x00000725       0x3b ..\obj\stm32f4xx_dma.o
 .ARM.attributes
                0x00000760       0x3b ..\obj\port.o
 .ARM.attributes
                0x0000079b       0x3b ..\obj\CC3000.o
 .ARM.attributes
                0x000007d6       0x3b ..\obj\evnt_handler.o
 .ARM.attributes
                0x00000811       0x3b ..\obj\stm32f4xx_spi.o
 .ARM.attributes
                0x0000084c       0x3b ..\obj\stm32f4xx_exti.o
 .ARM.attributes
                0x00000887       0x3b ..\obj\misc.o
 .ARM.attributes
                0x000008c2       0x3b ..\obj\stm32f4xx_rtc.o
 .ARM.attributes
                0x000008fd       0x3b ..\obj\stm32f4xx_tim.o
 .ARM.attributes
                0x00000938       0x3b ..\obj\usart.o
 .ARM.attributes
                0x00000973       0x24 c:/program files/gnu tools arm embedded/4.7 2014q2/bin/../lib/gcc/arm-none-eabi/4.7.4/armv7e-m/fpu\libgcc.a(_arm_addsubdf3.o)
 .ARM.attributes
                0x00000997       0x24 c:/program files/gnu tools arm embedded/4.7 2014q2/bin/../lib/gcc/arm-none-eabi/4.7.4/armv7e-m/fpu\libgcc.a(_arm_muldivdf3.o)
 .ARM.attributes
                0x000009bb       0x24 c:/program files/gnu tools arm embedded/4.7 2014q2/bin/../lib/gcc/arm-none-eabi/4.7.4/armv7e-m/fpu\libgcc.a(_arm_cmpdf2.o)
 .ARM.attributes
                0x000009df       0x24 c:/program files/gnu tools arm embedded/4.7 2014q2/bin/../lib/gcc/arm-none-eabi/4.7.4/armv7e-m/fpu\libgcc.a(_arm_fixdfsi.o)
 .ARM.attributes
                0x00000a03       0x24 c:/program files/gnu tools arm embedded/4.7 2014q2/bin/../lib/gcc/arm-none-eabi/4.7.4/armv7e-m/fpu\libgcc.a(_arm_truncdfsf2.o)
 .ARM.attributes
                0x00000a27       0x36 c:/program files/gnu tools arm embedded/4.7 2014q2/bin/../lib/gcc/arm-none-eabi/4.7.4/../../../../arm-none-eabi/lib/armv7e-m/fpu\libg.a(lib_a-errno.o)
 .ARM.attributes
                0x00000a5d       0x36 c:/program files/gnu tools arm embedded/4.7 2014q2/bin/../lib/gcc/arm-none-eabi/4.7.4/../../../../arm-none-eabi/lib/armv7e-m/fpu\libg.a(lib_a-impure.o)
 .ARM.attributes
                0x00000a93       0x36 c:/program files/gnu tools arm embedded/4.7 2014q2/bin/../lib/gcc/arm-none-eabi/4.7.4/../../../../arm-none-eabi/lib/armv7e-m/fpu\libg.a(lib_a-mallocr.o)
 .ARM.attributes
                0x00000ac9       0x36 c:/program files/gnu tools arm embedded/4.7 2014q2/bin/../lib/gcc/arm-none-eabi/4.7.4/../../../../arm-none-eabi/lib/armv7e-m/fpu\libg.a(lib_a-memcpy.o)
 .ARM.attributes
                0x00000aff       0x36 c:/program files/gnu tools arm embedded/4.7 2014q2/bin/../lib/gcc/arm-none-eabi/4.7.4/../../../../arm-none-eabi/lib/armv7e-m/fpu\libg.a(lib_a-memset.o)
 .ARM.attributes
                0x00000b35       0x36 c:/program files/gnu tools arm embedded/4.7 2014q2/bin/../lib/gcc/arm-none-eabi/4.7.4/../../../../arm-none-eabi/lib/armv7e-m/fpu\libg.a(lib_a-mlock.o)
 .ARM.attributes
                0x00000b6b       0x36 c:/program files/gnu tools arm embedded/4.7 2014q2/bin/../lib/gcc/arm-none-eabi/4.7.4/../../../../arm-none-eabi/lib/armv7e-m/fpu\libg.a(lib_a-sbrkr.o)
 .ARM.attributes
                0x00000ba1       0x36 c:/program files/gnu tools arm embedded/4.7 2014q2/bin/../lib/gcc/arm-none-eabi/4.7.4/../../../../arm-none-eabi/lib/armv7e-m/fpu\libg.a(lib_a-sprintf.o)
 .ARM.attributes
                0x00000bd7       0x36 c:/program files/gnu tools arm embedded/4.7 2014q2/bin/../lib/gcc/arm-none-eabi/4.7.4/../../../../arm-none-eabi/lib/armv7e-m/fpu\libg.a(lib_a-sscanf.o)
 .ARM.attributes
                0x00000c0d       0x36 c:/program files/gnu tools arm embedded/4.7 2014q2/bin/../lib/gcc/arm-none-eabi/4.7.4/../../../../arm-none-eabi/lib/armv7e-m/fpu\libg.a(lib_a-stdio.o)
 .ARM.attributes
                0x00000c43       0x36 c:/program files/gnu tools arm embedded/4.7 2014q2/bin/../lib/gcc/arm-none-eabi/4.7.4/../../../../arm-none-eabi/lib/armv7e-m/fpu\libg.a(lib_a-strlen.o)
 .ARM.attributes
                0x00000c79       0x36 c:/program files/gnu tools arm embedded/4.7 2014q2/bin/../lib/gcc/arm-none-eabi/4.7.4/../../../../arm-none-eabi/lib/armv7e-m/fpu\libg.a(lib_a-svfprintf.o)
 .ARM.attributes
                0x00000caf       0x36 c:/program files/gnu tools arm embedded/4.7 2014q2/bin/../lib/gcc/arm-none-eabi/4.7.4/../../../../arm-none-eabi/lib/armv7e-m/fpu\libg.a(lib_a-svfscanf.o)
 .ARM.attributes
                0x00000ce5       0x36 c:/program files/gnu tools arm embedded/4.7 2014q2/bin/../lib/gcc/arm-none-eabi/4.7.4/../../../../arm-none-eabi/lib/armv7e-m/fpu\libg.a(lib_a-ctype_.o)
 .ARM.attributes
                0x00000d1b       0x36 c:/program files/gnu tools arm embedded/4.7 2014q2/bin/../lib/gcc/arm-none-eabi/4.7.4/../../../../arm-none-eabi/lib/armv7e-m/fpu\libg.a(lib_a-dtoa.o)
 .ARM.attributes
                0x00000d51       0x36 c:/program files/gnu tools arm embedded/4.7 2014q2/bin/../lib/gcc/arm-none-eabi/4.7.4/../../../../arm-none-eabi/lib/armv7e-m/fpu\libg.a(lib_a-findfp.o)
 .ARM.attributes
                0x00000d87       0x36 c:/program files/gnu tools arm embedded/4.7 2014q2/bin/../lib/gcc/arm-none-eabi/4.7.4/../../../../arm-none-eabi/lib/armv7e-m/fpu\libg.a(lib_a-freer.o)
 .ARM.attributes
                0x00000dbd       0x36 c:/program files/gnu tools arm embedded/4.7 2014q2/bin/../lib/gcc/arm-none-eabi/4.7.4/../../../../arm-none-eabi/lib/armv7e-m/fpu\libg.a(lib_a-iswspace.o)
 .ARM.attributes
                0x00000df3       0x36 c:/program files/gnu tools arm embedded/4.7 2014q2/bin/../lib/gcc/arm-none-eabi/4.7.4/../../../../arm-none-eabi/lib/armv7e-m/fpu\libg.a(lib_a-locale.o)
 .ARM.attributes
                0x00000e29       0x36 c:/program files/gnu tools arm embedded/4.7 2014q2/bin/../lib/gcc/arm-none-eabi/4.7.4/../../../../arm-none-eabi/lib/armv7e-m/fpu\libg.a(lib_a-mbrtowc.o)
 .ARM.attributes
                0x00000e5f       0x36 c:/program files/gnu tools arm embedded/4.7 2014q2/bin/../lib/gcc/arm-none-eabi/4.7.4/../../../../arm-none-eabi/lib/armv7e-m/fpu\libg.a(lib_a-mbtowc_r.o)
 .ARM.attributes
                0x00000e95       0x36 c:/program files/gnu tools arm embedded/4.7 2014q2/bin/../lib/gcc/arm-none-eabi/4.7.4/../../../../arm-none-eabi/lib/armv7e-m/fpu\libg.a(lib_a-memchr.o)
 .ARM.attributes
                0x00000ecb       0x36 c:/program files/gnu tools arm embedded/4.7 2014q2/bin/../lib/gcc/arm-none-eabi/4.7.4/../../../../arm-none-eabi/lib/armv7e-m/fpu\libg.a(lib_a-mprec.o)
 .ARM.attributes
                0x00000f01       0x36 c:/program files/gnu tools arm embedded/4.7 2014q2/bin/../lib/gcc/arm-none-eabi/4.7.4/../../../../arm-none-eabi/lib/armv7e-m/fpu\libg.a(lib_a-reent.o)
 .ARM.attributes
                0x00000f37       0x36 c:/program files/gnu tools arm embedded/4.7 2014q2/bin/../lib/gcc/arm-none-eabi/4.7.4/../../../../arm-none-eabi/lib/armv7e-m/fpu\libg.a(lib_a-s_fpclassify.o)
 .ARM.attributes
                0x00000f6d       0x36 c:/program files/gnu tools arm embedded/4.7 2014q2/bin/../lib/gcc/arm-none-eabi/4.7.4/../../../../arm-none-eabi/lib/armv7e-m/fpu\libg.a(lib_a-sccl.o)
 .ARM.attributes
                0x00000fa3       0x36 c:/program files/gnu tools arm embedded/4.7 2014q2/bin/../lib/gcc/arm-none-eabi/4.7.4/../../../../arm-none-eabi/lib/armv7e-m/fpu\libg.a(lib_a-sf_nan.o)
 .ARM.attributes
                0x00000fd9       0x36 c:/program files/gnu tools arm embedded/4.7 2014q2/bin/../lib/gcc/arm-none-eabi/4.7.4/../../../../arm-none-eabi/lib/armv7e-m/fpu\libg.a(lib_a-strtod.o)
 .ARM.attributes
                0x0000100f       0x36 c:/program files/gnu tools arm embedded/4.7 2014q2/bin/../lib/gcc/arm-none-eabi/4.7.4/../../../../arm-none-eabi/lib/armv7e-m/fpu\libg.a(lib_a-strtol.o)
 .ARM.attributes
                0x00001045       0x36 c:/program files/gnu tools arm embedded/4.7 2014q2/bin/../lib/gcc/arm-none-eabi/4.7.4/../../../../arm-none-eabi/lib/armv7e-m/fpu\libg.a(lib_a-strtoll_r.o)
 .ARM.attributes
                0x0000107b       0x36 c:/program files/gnu tools arm embedded/4.7 2014q2/bin/../lib/gcc/arm-none-eabi/4.7.4/../../../../arm-none-eabi/lib/armv7e-m/fpu\libg.a(lib_a-strtoul.o)
 .ARM.attributes
                0x000010b1       0x36 c:/program files/gnu tools arm embedded/4.7 2014q2/bin/../lib/gcc/arm-none-eabi/4.7.4/../../../../arm-none-eabi/lib/armv7e-m/fpu\libg.a(lib_a-strtoull_r.o)
 .ARM.attributes
                0x000010e7       0x36 c:/program files/gnu tools arm embedded/4.7 2014q2/bin/../lib/gcc/arm-none-eabi/4.7.4/../../../../arm-none-eabi/lib/armv7e-m/fpu\libg.a(lib_a-svfiprintf.o)
 .ARM.attributes
                0x0000111d       0x36 c:/program files/gnu tools arm embedded/4.7 2014q2/bin/../lib/gcc/arm-none-eabi/4.7.4/../../../../arm-none-eabi/lib/armv7e-m/fpu\libg.a(lib_a-svfiscanf.o)
 .ARM.attributes
                0x00001153       0x36 c:/program files/gnu tools arm embedded/4.7 2014q2/bin/../lib/gcc/arm-none-eabi/4.7.4/../../../../arm-none-eabi/lib/armv7e-m/fpu\libg.a(lib_a-ungetc.o)
 .ARM.attributes
                0x00001189       0x36 c:/program files/gnu tools arm embedded/4.7 2014q2/bin/../lib/gcc/arm-none-eabi/4.7.4/../../../../arm-none-eabi/lib/armv7e-m/fpu\libg.a(lib_a-callocr.o)
 .ARM.attributes
                0x000011bf       0x36 c:/program files/gnu tools arm embedded/4.7 2014q2/bin/../lib/gcc/arm-none-eabi/4.7.4/../../../../arm-none-eabi/lib/armv7e-m/fpu\libg.a(lib_a-gdtoa-gethex.o)
 .ARM.attributes
                0x000011f5       0x36 c:/program files/gnu tools arm embedded/4.7 2014q2/bin/../lib/gcc/arm-none-eabi/4.7.4/../../../../arm-none-eabi/lib/armv7e-m/fpu\libg.a(lib_a-gdtoa-hexnan.o)
 .ARM.attributes
                0x0000122b       0x36 c:/program files/gnu tools arm embedded/4.7 2014q2/bin/../lib/gcc/arm-none-eabi/4.7.4/../../../../arm-none-eabi/lib/armv7e-m/fpu\libg.a(lib_a-memmove.o)
 .ARM.attributes
                0x00001261       0x36 c:/program files/gnu tools arm embedded/4.7 2014q2/bin/../lib/gcc/arm-none-eabi/4.7.4/../../../../arm-none-eabi/lib/armv7e-m/fpu\libg.a(lib_a-reallocr.o)
 .ARM.attributes
                0x00001297       0x36 c:/program files/gnu tools arm embedded/4.7 2014q2/bin/../lib/gcc/arm-none-eabi/4.7.4/../../../../arm-none-eabi/lib/armv7e-m/fpu\libg.a(lib_a-strncmp.o)
 .ARM.attributes
                0x000012cd       0x24 c:/program files/gnu tools arm embedded/4.7 2014q2/bin/../lib/gcc/arm-none-eabi/4.7.4/armv7e-m/fpu\libgcc.a(_arm_fixunsdfsi.o)
 .ARM.attributes
                0x000012f1       0x24 c:/program files/gnu tools arm embedded/4.7 2014q2/bin/../lib/gcc/arm-none-eabi/4.7.4/armv7e-m/fpu\libgcc.a(_aeabi_uldivmod.o)
 .ARM.attributes
                0x00001315       0x36 c:/program files/gnu tools arm embedded/4.7 2014q2/bin/../lib/gcc/arm-none-eabi/4.7.4/armv7e-m/fpu\libgcc.a(bpabi.o)
 .ARM.attributes
                0x0000134b       0x24 c:/program files/gnu tools arm embedded/4.7 2014q2/bin/../lib/gcc/arm-none-eabi/4.7.4/armv7e-m/fpu\libgcc.a(_dvmd_tls.o)
 .ARM.attributes
                0x0000136f       0x36 c:/program files/gnu tools arm embedded/4.7 2014q2/bin/../lib/gcc/arm-none-eabi/4.7.4/armv7e-m/fpu\libgcc.a(_divdi3.o)
 .ARM.attributes
                0x000013a5       0x36 c:/program files/gnu tools arm embedded/4.7 2014q2/bin/../lib/gcc/arm-none-eabi/4.7.4/armv7e-m/fpu\libgcc.a(_udivdi3.o)

.debug_frame    0x00000000     0x5fa8
 .debug_frame   0x00000000      0x250 ..\obj\socket.o
 .debug_frame   0x00000250       0xbc ..\obj\stm32f4xx_syscfg.o
 .debug_frame   0x0000030c      0x110 ..\obj\aufgabe4.o
 .debug_frame   0x0000041c      0x250 ..\obj\spi.o
 .debug_frame   0x0000066c       0x90 ..\obj\hci.o
 .debug_frame   0x000006fc      0x20c ..\obj\aufgabe5.o
 .debug_frame   0x00000908       0xe8 ..\obj\core.o
 .debug_frame   0x000009f0      0x33c ..\obj\interrupts.o
 .debug_frame   0x00000d2c      0x19c ..\obj\aufgabe6.o
 .debug_frame   0x00000ec8      0x344 ..\obj\stm32f4xx_usart.o
 .debug_frame   0x0000120c      0x15c ..\obj\stm32f4xx_pwr.o
 .debug_frame   0x00001368      0x220 ..\obj\rtc.o
 .debug_frame   0x00001588       0x9c ..\obj\cc3000_common.o
 .debug_frame   0x00001624      0x2a4 ..\obj\aufgabe8.o
 .debug_frame   0x000018c8       0xe8 ..\obj\stm32f4xx_wwdg.o
 .debug_frame   0x000019b0      0x1ec ..\obj\stm32f4xx_dac.o
 .debug_frame   0x00001b9c       0x90 ..\obj\aufgabe9.o
 .debug_frame   0x00001c2c      0x178 ..\obj\task.o
 .debug_frame   0x00001da4       0x48 ..\obj\startup_stm32f4xx.o
 .debug_frame   0x00001dec       0x2c ..\obj\main.o
 .debug_frame   0x00001e18      0x4d8 ..\obj\stm32f4xx_rcc.o
 .debug_frame   0x000022f0       0xe4 ..\obj\aufgabe10.o
 .debug_frame   0x000023d4       0x9c ..\obj\init.o
 .debug_frame   0x00002470       0xc8 ..\obj\aufgabe11.o
 .debug_frame   0x00002538      0x434 ..\obj\stm32f4xx_adc.o
 .debug_frame   0x0000296c      0x248 ..\obj\wlan.o
 .debug_frame   0x00002bb4      0x22c ..\obj\aufgabe12.o
 .debug_frame   0x00002de0      0x2dc ..\obj\CC1101.o
 .debug_frame   0x000030bc      0x19c ..\obj\stm32f4xx_gpio.o
 .debug_frame   0x00003258       0x64 ..\obj\system_stm32f4xx.o
 .debug_frame   0x000032bc      0x108 ..\obj\syscalls.o
 .debug_frame   0x000033c4      0x224 ..\obj\stm32f4xx_dma.o
 .debug_frame   0x000035e8       0xb0 ..\obj\port.o
 .debug_frame   0x00003698      0x2f4 ..\obj\CC3000.o
 .debug_frame   0x0000398c      0x148 ..\obj\evnt_handler.o
 .debug_frame   0x00003ad4      0x2d0 ..\obj\stm32f4xx_spi.o
 .debug_frame   0x00003da4       0xec ..\obj\stm32f4xx_exti.o
 .debug_frame   0x00003e90       0x9c ..\obj\misc.o
 .debug_frame   0x00003f2c      0x670 ..\obj\stm32f4xx_rtc.o
 .debug_frame   0x0000459c      0xa3c ..\obj\stm32f4xx_tim.o
 .debug_frame   0x00004fd8      0x168 ..\obj\usart.o
 .debug_frame   0x00005140       0x20 c:/program files/gnu tools arm embedded/4.7 2014q2/bin/../lib/gcc/arm-none-eabi/4.7.4/../../../../arm-none-eabi/lib/armv7e-m/fpu\libg.a(lib_a-errno.o)
 .debug_frame   0x00005160       0x38 c:/program files/gnu tools arm embedded/4.7 2014q2/bin/../lib/gcc/arm-none-eabi/4.7.4/../../../../arm-none-eabi/lib/armv7e-m/fpu\libg.a(lib_a-mallocr.o)
 .debug_frame   0x00005198       0x30 c:/program files/gnu tools arm embedded/4.7 2014q2/bin/../lib/gcc/arm-none-eabi/4.7.4/../../../../arm-none-eabi/lib/armv7e-m/fpu\libg.a(lib_a-memcpy.o)
 .debug_frame   0x000051c8       0x2c c:/program files/gnu tools arm embedded/4.7 2014q2/bin/../lib/gcc/arm-none-eabi/4.7.4/../../../../arm-none-eabi/lib/armv7e-m/fpu\libg.a(lib_a-memset.o)
 .debug_frame   0x000051f4       0x30 c:/program files/gnu tools arm embedded/4.7 2014q2/bin/../lib/gcc/arm-none-eabi/4.7.4/../../../../arm-none-eabi/lib/armv7e-m/fpu\libg.a(lib_a-mlock.o)
 .debug_frame   0x00005224       0x2c c:/program files/gnu tools arm embedded/4.7 2014q2/bin/../lib/gcc/arm-none-eabi/4.7.4/../../../../arm-none-eabi/lib/armv7e-m/fpu\libg.a(lib_a-sbrkr.o)
 .debug_frame   0x00005250       0x60 c:/program files/gnu tools arm embedded/4.7 2014q2/bin/../lib/gcc/arm-none-eabi/4.7.4/../../../../arm-none-eabi/lib/armv7e-m/fpu\libg.a(lib_a-sprintf.o)
 .debug_frame   0x000052b0       0x68 c:/program files/gnu tools arm embedded/4.7 2014q2/bin/../lib/gcc/arm-none-eabi/4.7.4/../../../../arm-none-eabi/lib/armv7e-m/fpu\libg.a(lib_a-sscanf.o)
 .debug_frame   0x00005318       0x80 c:/program files/gnu tools arm embedded/4.7 2014q2/bin/../lib/gcc/arm-none-eabi/4.7.4/../../../../arm-none-eabi/lib/armv7e-m/fpu\libg.a(lib_a-stdio.o)
 .debug_frame   0x00005398       0x20 c:/program files/gnu tools arm embedded/4.7 2014q2/bin/../lib/gcc/arm-none-eabi/4.7.4/../../../../arm-none-eabi/lib/armv7e-m/fpu\libg.a(lib_a-strlen.o)
 .debug_frame   0x000053b8       0x3c c:/program files/gnu tools arm embedded/4.7 2014q2/bin/../lib/gcc/arm-none-eabi/4.7.4/../../../../arm-none-eabi/lib/armv7e-m/fpu\libg.a(lib_a-svfprintf.o)
 .debug_frame   0x000053f4       0x40 c:/program files/gnu tools arm embedded/4.7 2014q2/bin/../lib/gcc/arm-none-eabi/4.7.4/../../../../arm-none-eabi/lib/armv7e-m/fpu\libg.a(lib_a-svfscanf.o)
 .debug_frame   0x00005434       0x64 c:/program files/gnu tools arm embedded/4.7 2014q2/bin/../lib/gcc/arm-none-eabi/4.7.4/../../../../arm-none-eabi/lib/armv7e-m/fpu\libg.a(lib_a-dtoa.o)
 .debug_frame   0x00005498      0x11c c:/program files/gnu tools arm embedded/4.7 2014q2/bin/../lib/gcc/arm-none-eabi/4.7.4/../../../../arm-none-eabi/lib/armv7e-m/fpu\libg.a(lib_a-findfp.o)
 .debug_frame   0x000055b4       0x50 c:/program files/gnu tools arm embedded/4.7 2014q2/bin/../lib/gcc/arm-none-eabi/4.7.4/../../../../arm-none-eabi/lib/armv7e-m/fpu\libg.a(lib_a-freer.o)
 .debug_frame   0x00005604       0x20 c:/program files/gnu tools arm embedded/4.7 2014q2/bin/../lib/gcc/arm-none-eabi/4.7.4/../../../../arm-none-eabi/lib/armv7e-m/fpu\libg.a(lib_a-iswspace.o)
 .debug_frame   0x00005624       0xa0 c:/program files/gnu tools arm embedded/4.7 2014q2/bin/../lib/gcc/arm-none-eabi/4.7.4/../../../../arm-none-eabi/lib/armv7e-m/fpu\libg.a(lib_a-locale.o)
 .debug_frame   0x000056c4       0x5c c:/program files/gnu tools arm embedded/4.7 2014q2/bin/../lib/gcc/arm-none-eabi/4.7.4/../../../../arm-none-eabi/lib/armv7e-m/fpu\libg.a(lib_a-mbrtowc.o)
 .debug_frame   0x00005720       0x48 c:/program files/gnu tools arm embedded/4.7 2014q2/bin/../lib/gcc/arm-none-eabi/4.7.4/../../../../arm-none-eabi/lib/armv7e-m/fpu\libg.a(lib_a-mbtowc_r.o)
 .debug_frame   0x00005768       0x2c c:/program files/gnu tools arm embedded/4.7 2014q2/bin/../lib/gcc/arm-none-eabi/4.7.4/../../../../arm-none-eabi/lib/armv7e-m/fpu\libg.a(lib_a-memchr.o)
 .debug_frame   0x00005794      0x234 c:/program files/gnu tools arm embedded/4.7 2014q2/bin/../lib/gcc/arm-none-eabi/4.7.4/../../../../arm-none-eabi/lib/armv7e-m/fpu\libg.a(lib_a-mprec.o)
 .debug_frame   0x000059c8       0x6c c:/program files/gnu tools arm embedded/4.7 2014q2/bin/../lib/gcc/arm-none-eabi/4.7.4/../../../../arm-none-eabi/lib/armv7e-m/fpu\libg.a(lib_a-reent.o)
 .debug_frame   0x00005a34       0x20 c:/program files/gnu tools arm embedded/4.7 2014q2/bin/../lib/gcc/arm-none-eabi/4.7.4/../../../../arm-none-eabi/lib/armv7e-m/fpu\libg.a(lib_a-s_fpclassify.o)
 .debug_frame   0x00005a54       0x2c c:/program files/gnu tools arm embedded/4.7 2014q2/bin/../lib/gcc/arm-none-eabi/4.7.4/../../../../arm-none-eabi/lib/armv7e-m/fpu\libg.a(lib_a-sccl.o)
 .debug_frame   0x00005a80       0x20 c:/program files/gnu tools arm embedded/4.7 2014q2/bin/../lib/gcc/arm-none-eabi/4.7.4/../../../../arm-none-eabi/lib/armv7e-m/fpu\libg.a(lib_a-sf_nan.o)
 .debug_frame   0x00005aa0       0x78 c:/program files/gnu tools arm embedded/4.7 2014q2/bin/../lib/gcc/arm-none-eabi/4.7.4/../../../../arm-none-eabi/lib/armv7e-m/fpu\libg.a(lib_a-strtod.o)
 .debug_frame   0x00005b18       0x54 c:/program files/gnu tools arm embedded/4.7 2014q2/bin/../lib/gcc/arm-none-eabi/4.7.4/../../../../arm-none-eabi/lib/armv7e-m/fpu\libg.a(lib_a-strtol.o)
 .debug_frame   0x00005b6c       0x38 c:/program files/gnu tools arm embedded/4.7 2014q2/bin/../lib/gcc/arm-none-eabi/4.7.4/../../../../arm-none-eabi/lib/armv7e-m/fpu\libg.a(lib_a-strtoll_r.o)
 .debug_frame   0x00005ba4       0x54 c:/program files/gnu tools arm embedded/4.7 2014q2/bin/../lib/gcc/arm-none-eabi/4.7.4/../../../../arm-none-eabi/lib/armv7e-m/fpu\libg.a(lib_a-strtoul.o)
 .debug_frame   0x00005bf8       0x38 c:/program files/gnu tools arm embedded/4.7 2014q2/bin/../lib/gcc/arm-none-eabi/4.7.4/../../../../arm-none-eabi/lib/armv7e-m/fpu\libg.a(lib_a-strtoull_r.o)
 .debug_frame   0x00005c30       0x64 c:/program files/gnu tools arm embedded/4.7 2014q2/bin/../lib/gcc/arm-none-eabi/4.7.4/../../../../arm-none-eabi/lib/armv7e-m/fpu\libg.a(lib_a-svfiprintf.o)
 .debug_frame   0x00005c94       0x98 c:/program files/gnu tools arm embedded/4.7 2014q2/bin/../lib/gcc/arm-none-eabi/4.7.4/../../../../arm-none-eabi/lib/armv7e-m/fpu\libg.a(lib_a-svfiscanf.o)
 .debug_frame   0x00005d2c       0x64 c:/program files/gnu tools arm embedded/4.7 2014q2/bin/../lib/gcc/arm-none-eabi/4.7.4/../../../../arm-none-eabi/lib/armv7e-m/fpu\libg.a(lib_a-ungetc.o)
 .debug_frame   0x00005d90       0x28 c:/program files/gnu tools arm embedded/4.7 2014q2/bin/../lib/gcc/arm-none-eabi/4.7.4/../../../../arm-none-eabi/lib/armv7e-m/fpu\libg.a(lib_a-callocr.o)
 .debug_frame   0x00005db8       0x6c c:/program files/gnu tools arm embedded/4.7 2014q2/bin/../lib/gcc/arm-none-eabi/4.7.4/../../../../arm-none-eabi/lib/armv7e-m/fpu\libg.a(lib_a-gdtoa-gethex.o)
 .debug_frame   0x00005e24       0x38 c:/program files/gnu tools arm embedded/4.7 2014q2/bin/../lib/gcc/arm-none-eabi/4.7.4/../../../../arm-none-eabi/lib/armv7e-m/fpu\libg.a(lib_a-gdtoa-hexnan.o)
 .debug_frame   0x00005e5c       0x30 c:/program files/gnu tools arm embedded/4.7 2014q2/bin/../lib/gcc/arm-none-eabi/4.7.4/../../../../arm-none-eabi/lib/armv7e-m/fpu\libg.a(lib_a-memmove.o)
 .debug_frame   0x00005e8c       0x38 c:/program files/gnu tools arm embedded/4.7 2014q2/bin/../lib/gcc/arm-none-eabi/4.7.4/../../../../arm-none-eabi/lib/armv7e-m/fpu\libg.a(lib_a-reallocr.o)
 .debug_frame   0x00005ec4       0x2c c:/program files/gnu tools arm embedded/4.7 2014q2/bin/../lib/gcc/arm-none-eabi/4.7.4/../../../../arm-none-eabi/lib/armv7e-m/fpu\libg.a(lib_a-strncmp.o)
 .debug_frame   0x00005ef0       0x50 c:/program files/gnu tools arm embedded/4.7 2014q2/bin/../lib/gcc/arm-none-eabi/4.7.4/armv7e-m/fpu\libgcc.a(bpabi.o)
 .debug_frame   0x00005f40       0x34 c:/program files/gnu tools arm embedded/4.7 2014q2/bin/../lib/gcc/arm-none-eabi/4.7.4/armv7e-m/fpu\libgcc.a(_divdi3.o)
 .debug_frame   0x00005f74       0x34 c:/program files/gnu tools arm embedded/4.7 2014q2/bin/../lib/gcc/arm-none-eabi/4.7.4/armv7e-m/fpu\libgcc.a(_udivdi3.o)
